{
  "_format": "hh-sol-artifact-1",
  "contractName": "KlimaGarden",
  "sourceName": "contracts/KlimaGarden.sol",
  "abi": [
    {
      "inputs": [],
      "stateMutability": "nonpayable",
      "type": "constructor"
    },
    {
      "anonymous": false,
      "inputs": [
        {
          "indexed": true,
          "internalType": "address",
          "name": "owner",
          "type": "address"
        },
        {
          "indexed": true,
          "internalType": "address",
          "name": "approved",
          "type": "address"
        },
        {
          "indexed": true,
          "internalType": "uint256",
          "name": "tokenId",
          "type": "uint256"
        }
      ],
      "name": "Approval",
      "type": "event"
    },
    {
      "anonymous": false,
      "inputs": [
        {
          "indexed": true,
          "internalType": "address",
          "name": "owner",
          "type": "address"
        },
        {
          "indexed": true,
          "internalType": "address",
          "name": "operator",
          "type": "address"
        },
        {
          "indexed": false,
          "internalType": "bool",
          "name": "approved",
          "type": "bool"
        }
      ],
      "name": "ApprovalForAll",
      "type": "event"
    },
    {
      "anonymous": false,
      "inputs": [
        {
          "indexed": false,
          "internalType": "address",
          "name": "sender",
          "type": "address"
        },
        {
          "indexed": false,
          "internalType": "uint256",
          "name": "tokenId",
          "type": "uint256"
        }
      ],
      "name": "NewKlimaGardenMinted",
      "type": "event"
    },
    {
      "anonymous": false,
      "inputs": [
        {
          "indexed": true,
          "internalType": "address",
          "name": "from",
          "type": "address"
        },
        {
          "indexed": true,
          "internalType": "address",
          "name": "to",
          "type": "address"
        },
        {
          "indexed": true,
          "internalType": "uint256",
          "name": "tokenId",
          "type": "uint256"
        }
      ],
      "name": "Transfer",
      "type": "event"
    },
    {
      "inputs": [
        {
          "internalType": "uint256",
          "name": "",
          "type": "uint256"
        }
      ],
      "name": "_sklimaBalances",
      "outputs": [
        {
          "internalType": "uint256",
          "name": "",
          "type": "uint256"
        }
      ],
      "stateMutability": "view",
      "type": "function"
    },
    {
      "inputs": [
        {
          "internalType": "address",
          "name": "to",
          "type": "address"
        },
        {
          "internalType": "uint256",
          "name": "tokenId",
          "type": "uint256"
        }
      ],
      "name": "approve",
      "outputs": [],
      "stateMutability": "nonpayable",
      "type": "function"
    },
    {
      "inputs": [
        {
          "internalType": "address",
          "name": "owner",
          "type": "address"
        }
      ],
      "name": "balanceOf",
      "outputs": [
        {
          "internalType": "uint256",
          "name": "",
          "type": "uint256"
        }
      ],
      "stateMutability": "view",
      "type": "function"
    },
    {
      "inputs": [
        {
          "internalType": "uint256",
          "name": "tokenId",
          "type": "uint256"
        }
      ],
      "name": "getApproved",
      "outputs": [
        {
          "internalType": "address",
          "name": "",
          "type": "address"
        }
      ],
      "stateMutability": "view",
      "type": "function"
    },
    {
      "inputs": [
        {
          "internalType": "address",
          "name": "owner",
          "type": "address"
        },
        {
          "internalType": "address",
          "name": "operator",
          "type": "address"
        }
      ],
      "name": "isApprovedForAll",
      "outputs": [
        {
          "internalType": "bool",
          "name": "",
          "type": "bool"
        }
      ],
      "stateMutability": "view",
      "type": "function"
    },
    {
      "inputs": [
        {
          "internalType": "uint256",
          "name": "sklimaBalance",
          "type": "uint256"
        }
      ],
      "name": "makeNFT",
      "outputs": [],
      "stateMutability": "nonpayable",
      "type": "function"
    },
    {
      "inputs": [],
      "name": "name",
      "outputs": [
        {
          "internalType": "string",
          "name": "",
          "type": "string"
        }
      ],
      "stateMutability": "view",
      "type": "function"
    },
    {
      "inputs": [
        {
          "internalType": "uint256",
          "name": "tokenId",
          "type": "uint256"
        }
      ],
      "name": "ownerOf",
      "outputs": [
        {
          "internalType": "address",
          "name": "",
          "type": "address"
        }
      ],
      "stateMutability": "view",
      "type": "function"
    },
    {
      "inputs": [
        {
          "internalType": "address",
          "name": "from",
          "type": "address"
        },
        {
          "internalType": "address",
          "name": "to",
          "type": "address"
        },
        {
          "internalType": "uint256",
          "name": "tokenId",
          "type": "uint256"
        }
      ],
      "name": "safeTransferFrom",
      "outputs": [],
      "stateMutability": "nonpayable",
      "type": "function"
    },
    {
      "inputs": [
        {
          "internalType": "address",
          "name": "from",
          "type": "address"
        },
        {
          "internalType": "address",
          "name": "to",
          "type": "address"
        },
        {
          "internalType": "uint256",
          "name": "tokenId",
          "type": "uint256"
        },
        {
          "internalType": "bytes",
          "name": "_data",
          "type": "bytes"
        }
      ],
      "name": "safeTransferFrom",
      "outputs": [],
      "stateMutability": "nonpayable",
      "type": "function"
    },
    {
      "inputs": [
        {
          "internalType": "address",
          "name": "operator",
          "type": "address"
        },
        {
          "internalType": "bool",
          "name": "approved",
          "type": "bool"
        }
      ],
      "name": "setApprovalForAll",
      "outputs": [],
      "stateMutability": "nonpayable",
      "type": "function"
    },
    {
      "inputs": [
        {
          "internalType": "bytes4",
          "name": "interfaceId",
          "type": "bytes4"
        }
      ],
      "name": "supportsInterface",
      "outputs": [
        {
          "internalType": "bool",
          "name": "",
          "type": "bool"
        }
      ],
      "stateMutability": "view",
      "type": "function"
    },
    {
      "inputs": [],
      "name": "symbol",
      "outputs": [
        {
          "internalType": "string",
          "name": "",
          "type": "string"
        }
      ],
      "stateMutability": "view",
      "type": "function"
    },
    {
      "inputs": [
        {
          "internalType": "uint256",
          "name": "tokenId",
          "type": "uint256"
        }
      ],
      "name": "tokenURI",
      "outputs": [
        {
          "internalType": "string",
          "name": "",
          "type": "string"
        }
      ],
      "stateMutability": "view",
      "type": "function"
    },
    {
      "inputs": [
        {
          "internalType": "address",
          "name": "from",
          "type": "address"
        },
        {
          "internalType": "address",
          "name": "to",
          "type": "address"
        },
        {
          "internalType": "uint256",
          "name": "tokenId",
          "type": "uint256"
        }
      ],
      "name": "transferFrom",
      "outputs": [],
      "stateMutability": "nonpayable",
      "type": "function"
    }
  ],
  "bytecode": "0x608060405260006009553480156200001657600080fd5b506040518060400160405280600f81526020017f4b6c696d612047617264656e20763100000000000000000000000000000000008152506040518060400160405280600581526020017f4b4752444e00000000000000000000000000000000000000000000000000000081525081600090805190602001906200009b929190620000bd565b508060019080519060200190620000b4929190620000bd565b505050620001d2565b828054620000cb906200016d565b90600052602060002090601f016020900481019282620000ef57600085556200013b565b82601f106200010a57805160ff19168380011785556200013b565b828001600101855582156200013b579182015b828111156200013a5782518255916020019190600101906200011d565b5b5090506200014a91906200014e565b5090565b5b80821115620001695760008160009055506001016200014f565b5090565b600060028204905060018216806200018657607f821691505b602082108114156200019d576200019c620001a3565b5b50919050565b7f4e487b7100000000000000000000000000000000000000000000000000000000600052602260045260246000fd5b613fb980620001e26000396000f3fe608060405234801561001057600080fd5b50600436106100f55760003560e01c80636352211e11610097578063a22cb46511610066578063a22cb46514610296578063b88d4fde146102b2578063c87b56dd146102ce578063e985e9c5146102fe576100f5565b80636352211e146101e857806370a08231146102185780638d9ee9521461024857806395d89b4114610278576100f5565b8063095ea7b3116100d3578063095ea7b314610178578063226c264d1461019457806323b872dd146101b057806342842e0e146101cc576100f5565b806301ffc9a7146100fa57806306fdde031461012a578063081812fc14610148575b600080fd5b610114600480360381019061010f9190612a89565b61032e565b60405161012191906136de565b60405180910390f35b610132610410565b60405161013f91906136f9565b60405180910390f35b610162600480360381019061015d9190612adb565b6104a2565b60405161016f919061364e565b60405180910390f35b610192600480360381019061018d9190612a4d565b610527565b005b6101ae60048036038101906101a99190612adb565b61063f565b005b6101ca60048036038101906101c59190612947565b610f50565b005b6101e660048036038101906101e19190612947565b610fb0565b005b61020260048036038101906101fd9190612adb565b610fd0565b60405161020f919061364e565b60405180910390f35b610232600480360381019061022d91906128e2565b611082565b60405161023f919061396e565b60405180910390f35b610262600480360381019061025d9190612adb565b61113a565b60405161026f919061396e565b60405180910390f35b610280611152565b60405161028d91906136f9565b60405180910390f35b6102b060048036038101906102ab9190612a11565b6111e4565b005b6102cc60048036038101906102c79190612996565b611365565b005b6102e860048036038101906102e39190612adb565b6113c7565b6040516102f591906136f9565b60405180910390f35b6103186004803603810190610313919061290b565b611519565b60405161032591906136de565b60405180910390f35b60007f80ac58cd000000000000000000000000000000000000000000000000000000007bffffffffffffffffffffffffffffffffffffffffffffffffffffffff1916827bffffffffffffffffffffffffffffffffffffffffffffffffffffffff191614806103f957507f5b5e139f000000000000000000000000000000000000000000000000000000007bffffffffffffffffffffffffffffffffffffffffffffffffffffffff1916827bffffffffffffffffffffffffffffffffffffffffffffffffffffffff1916145b806104095750610408826115ad565b5b9050919050565b60606000805461041f90613c3c565b80601f016020809104026020016040519081016040528092919081815260200182805461044b90613c3c565b80156104985780601f1061046d57610100808354040283529160200191610498565b820191906000526020600020905b81548152906001019060200180831161047b57829003601f168201915b5050505050905090565b60006104ad82611617565b6104ec576040517f08c379a00000000000000000000000000000000000000000000000000000000081526004016104e3906138ce565b60405180910390fd5b6004600083815260200190815260200160002060009054906101000a900473ffffffffffffffffffffffffffffffffffffffff169050919050565b600061053282610fd0565b90508073ffffffffffffffffffffffffffffffffffffffff168373ffffffffffffffffffffffffffffffffffffffff1614156105a3576040517f08c379a000000000000000000000000000000000000000000000000000000000815260040161059a9061392e565b60405180910390fd5b8073ffffffffffffffffffffffffffffffffffffffff166105c2611683565b73ffffffffffffffffffffffffffffffffffffffff1614806105f157506105f0816105eb611683565b611519565b5b610630576040517f08c379a00000000000000000000000000000000000000000000000000000000081526004016106279061380e565b60405180910390fd5b61063a838361168b565b505050565b600061064b6007611744565b90508160086000838152602001908152602001600020819055506000600467ffffffffffffffff8111156106a8577f4e487b7100000000000000000000000000000000000000000000000000000000600052604160045260246000fd5b6040519080825280602002602001820160405280156106e157816020015b6106ce612738565b8152602001906001900390816106c65790505b5090506040518060c001604052806040518060400160405280601081526020017f426c7565205269646765204c6f2d46690000000000000000000000000000000081525081526020016040518060600160405280602e8152602001613e72602e913981526020016103e881526020016040518060400160405280600681526020017f636f6d6d6f6e000000000000000000000000000000000000000000000000000081525081526020016040518060400160405280601981526020017f68747470733a2f2f6b6c696d612e67617264656e2f332c332f000000000000008152508152602001604051806080016040528060488152602001613f3c604891398152508160008151811061081c577f4e487b7100000000000000000000000000000000000000000000000000000000600052603260045260246000fd5b60200260200101819052506040518060c001604052806040518060400160405280601281526020017f436f6d66792028747265652c207472656529000000000000000000000000000081525081526020016040518060600160405280602e8152602001613ea0602e9139815260200161014381526020016040518060400160405280600481526020017f726172650000000000000000000000000000000000000000000000000000000081525081526020016040518060400160405280601981526020017f68747470733a2f2f6b6c696d612e67617264656e2f332c332f0000000000000081525081526020016040518060400160405280601481526020017f436f6d6679204b6c696d617465732028332c33290000000000000000000000008152508152508160018151811061097c577f4e487b7100000000000000000000000000000000000000000000000000000000600052603260045260246000fd5b60200260200101819052506040518060c001604052806040518060400160405280600981526020017f536571756573746572000000000000000000000000000000000000000000000081525081526020016040518060600160405280602e8152602001613f0e602e91398152602001602181526020016040518060400160405280600a81526020017f756c74726120726172650000000000000000000000000000000000000000000081525081526020016040518060400160405280601981526020017f68747470733a2f2f6b6c696d612e67617264656e2f332c332f0000000000000081525081526020016040518060400160405280601281526020017f53657175657374657220746f2072656e6577000000000000000000000000000081525081525081600281518110610adb577f4e487b7100000000000000000000000000000000000000000000000000000000600052603260045260246000fd5b60200260200101819052506040518060c001604052806040518060400160405280600981526020017f3f3f3f3f3f3f3f3f3f000000000000000000000000000000000000000000000081525081526020016040518060600160405280602e8152602001613f0e602e91398152602001600181526020016040518060400160405280600d81526020017f6f6e65206f662061206b696e640000000000000000000000000000000000000081525081526020016040518060400160405280601981526020017f68747470733a2f2f6b6c696d612e67617264656e2f332c332f0000000000000081525081526020016040518060400160405280601281526020017f53657175657374657220746f2072656e6577000000000000000000000000000081525081525081600381518110610c3a577f4e487b7100000000000000000000000000000000000000000000000000000000600052603260045260246000fd5b6020026020010181905250610c4d612738565b6000610c57611752565b905060018111610caa5782600381518110610c9b577f4e487b7100000000000000000000000000000000000000000000000000000000600052603260045260246000fd5b60200260200101519150610db0565b600181118015610cbb575060228111155b15610d095782600281518110610cfa577f4e487b7100000000000000000000000000000000000000000000000000000000600052603260045260246000fd5b60200260200101519150610daf565b602281118015610d1b57506101658111155b15610d695782600181518110610d5a577f4e487b7100000000000000000000000000000000000000000000000000000000600052603260045260246000fd5b60200260200101519150610dae565b82600081518110610da3577f4e487b7100000000000000000000000000000000000000000000000000000000600052603260045260246000fd5b602002602001015191505b5b5b6000610e1d83600001518460a0015185602001518660800151610dd28a6117c0565b8860600151610df3600860008e8152602001908152602001600020546117c0565b604051602001610e099796959493929190613506565b604051602081830303815290604052611995565b9050600081604051602001610e3291906135ef565b6040516020818303038152906040529050610e816040518060400160405280601581526020017f0a2d2d2d2d2d2d2d2d2d2d2d2d2d2d2d2d2d2d2d2d0000000000000000000000815250611b53565b610e8a81611b53565b610ec86040518060400160405280601581526020017f2d2d2d2d2d2d2d2d2d2d2d2d2d2d2d2d2d2d2d2d0a0000000000000000000000815250611b53565b610ed23387611bec565b610edc8682611c0a565b610f04604051806060016040528060258152602001613e4d6025913987338760000151611c7e565b610f0e6007611d20565b7fb0608e84c0ee085336e90edfdd8891576e0761b98002aa076756b6ceb423d14a3387604051610f3f9291906136b5565b60405180910390a150505050505050565b610f61610f5b611683565b82611d36565b610fa0576040517f08c379a0000000000000000000000000000000000000000000000000000000008152600401610f979061394e565b60405180910390fd5b610fab838383611e14565b505050565b610fcb83838360405180602001604052806000815250611365565b505050565b6000806002600084815260200190815260200160002060009054906101000a900473ffffffffffffffffffffffffffffffffffffffff169050600073ffffffffffffffffffffffffffffffffffffffff168173ffffffffffffffffffffffffffffffffffffffff161415611079576040517f08c379a00000000000000000000000000000000000000000000000000000000081526004016110709061384e565b60405180910390fd5b80915050919050565b60008073ffffffffffffffffffffffffffffffffffffffff168273ffffffffffffffffffffffffffffffffffffffff1614156110f3576040517f08c379a00000000000000000000000000000000000000000000000000000000081526004016110ea9061382e565b60405180910390fd5b600360008373ffffffffffffffffffffffffffffffffffffffff1673ffffffffffffffffffffffffffffffffffffffff168152602001908152602001600020549050919050565b60086020528060005260406000206000915090505481565b60606001805461116190613c3c565b80601f016020809104026020016040519081016040528092919081815260200182805461118d90613c3c565b80156111da5780601f106111af576101008083540402835291602001916111da565b820191906000526020600020905b8154815290600101906020018083116111bd57829003601f168201915b5050505050905090565b6111ec611683565b73ffffffffffffffffffffffffffffffffffffffff168273ffffffffffffffffffffffffffffffffffffffff16141561125a576040517f08c379a0000000000000000000000000000000000000000000000000000000008152600401611251906137ce565b60405180910390fd5b8060056000611267611683565b73ffffffffffffffffffffffffffffffffffffffff1673ffffffffffffffffffffffffffffffffffffffff16815260200190815260200160002060008473ffffffffffffffffffffffffffffffffffffffff1673ffffffffffffffffffffffffffffffffffffffff16815260200190815260200160002060006101000a81548160ff0219169083151502179055508173ffffffffffffffffffffffffffffffffffffffff16611314611683565b73ffffffffffffffffffffffffffffffffffffffff167f17307eab39ab6107e8899845ad3d59bd9653f200f220920489ca2b5937696c318360405161135991906136de565b60405180910390a35050565b611376611370611683565b83611d36565b6113b5576040517f08c379a00000000000000000000000000000000000000000000000000000000081526004016113ac9061394e565b60405180910390fd5b6113c184848484612070565b50505050565b60606113d282611617565b611411576040517f08c379a0000000000000000000000000000000000000000000000000000000008152600401611408906138ae565b60405180910390fd5b600060066000848152602001908152602001600020805461143190613c3c565b80601f016020809104026020016040519081016040528092919081815260200182805461145d90613c3c565b80156114aa5780601f1061147f576101008083540402835291602001916114aa565b820191906000526020600020905b81548152906001019060200180831161148d57829003601f168201915b5050505050905060006114bb6120cc565b90506000815114156114d1578192505050611514565b6000825111156115065780826040516020016114ee9291906134e2565b60405160208183030381529060405292505050611514565b61150f846120e3565b925050505b919050565b6000600560008473ffffffffffffffffffffffffffffffffffffffff1673ffffffffffffffffffffffffffffffffffffffff16815260200190815260200160002060008373ffffffffffffffffffffffffffffffffffffffff1673ffffffffffffffffffffffffffffffffffffffff16815260200190815260200160002060009054906101000a900460ff16905092915050565b60007f01ffc9a7000000000000000000000000000000000000000000000000000000007bffffffffffffffffffffffffffffffffffffffffffffffffffffffff1916827bffffffffffffffffffffffffffffffffffffffffffffffffffffffff1916149050919050565b60008073ffffffffffffffffffffffffffffffffffffffff166002600084815260200190815260200160002060009054906101000a900473ffffffffffffffffffffffffffffffffffffffff1673ffffffffffffffffffffffffffffffffffffffff1614159050919050565b600033905090565b816004600083815260200190815260200160002060006101000a81548173ffffffffffffffffffffffffffffffffffffffff021916908373ffffffffffffffffffffffffffffffffffffffff160217905550808273ffffffffffffffffffffffffffffffffffffffff166116fe83610fd0565b73ffffffffffffffffffffffffffffffffffffffff167f8c5be1e5ebec7d5bd14f71427d1e84f3dd0314c0f7b2291e5b200ac8c7c3b92560405160405180910390a45050565b600081600001549050919050565b60006009600081548092919061176790613c6e565b9190505550600061054d423360095460405160200161178893929190613611565b6040516020818303038152906040528051906020012060001c6117ab9190613ce5565b90506001816117ba9190613a2d565b91505090565b60606000821415611808576040518060400160405280600181526020017f30000000000000000000000000000000000000000000000000000000000000008152509050611990565b600082905060005b6000821461183a57808061182390613c6e565b915050600a826118339190613aba565b9150611810565b60008167ffffffffffffffff81111561187c577f4e487b7100000000000000000000000000000000000000000000000000000000600052604160045260246000fd5b6040519080825280601f01601f1916602001820160405280156118ae5781602001600182028036833780820191505090505b50905060008290505b60008614611988576001816118cc9190613b45565b90506000600a80886118de9190613aba565b6118e89190613aeb565b876118f39190613b45565b60306118ff9190613a83565b905060008160f81b905080848481518110611943577f4e487b7100000000000000000000000000000000000000000000000000000000600052603260045260246000fd5b60200101907effffffffffffffffffffffffffffffffffffffffffffffffffffffffffffff1916908160001a905350600a8861197f9190613aba565b975050506118b7565b819450505050505b919050565b606060008251905060008114156119be5760405180602001604052806000815250915050611b4e565b600060036002836119cf9190613a2d565b6119d99190613aba565b60046119e59190613aeb565b905060006020826119f69190613a2d565b67ffffffffffffffff811115611a35577f4e487b7100000000000000000000000000000000000000000000000000000000600052604160045260246000fd5b6040519080825280601f01601f191660200182016040528015611a675781602001600182028036833780820191505090505b5090506000604051806060016040528060408152602001613ece604091399050600181016020830160005b86811015611b0b5760038101905062ffffff818a015116603f8160121c168401518060081b905060ff603f83600c1c1686015116810190508060081b905060ff603f8360061c1686015116810190508060081b905060ff603f831686015116810190508060e01b90508084526004840193505050611a92565b506003860660018114611b255760028114611b3557611b40565b613d3d60f01b6002830352611b40565b603d60f81b60018303525b508484525050819450505050505b919050565b611be981604051602401611b6791906136f9565b6040516020818303038152906040527f41304fac000000000000000000000000000000000000000000000000000000007bffffffffffffffffffffffffffffffffffffffffffffffffffffffff19166020820180517bffffffffffffffffffffffffffffffffffffffffffffffffffffffff838183161783525050505061218a565b50565b611c068282604051806020016040528060008152506121b3565b5050565b611c1382611617565b611c52576040517f08c379a0000000000000000000000000000000000000000000000000000000008152600401611c499061386e565b60405180910390fd5b80600660008481526020019081526020016000209080519060200190611c7992919061276e565b505050565b611d1a84848484604051602401611c98949392919061371b565b6040516020818303038152906040527f3254c2e8000000000000000000000000000000000000000000000000000000007bffffffffffffffffffffffffffffffffffffffffffffffffffffffff19166020820180517bffffffffffffffffffffffffffffffffffffffffffffffffffffffff838183161783525050505061218a565b50505050565b6001816000016000828254019250508190555050565b6000611d4182611617565b611d80576040517f08c379a0000000000000000000000000000000000000000000000000000000008152600401611d77906137ee565b60405180910390fd5b6000611d8b83610fd0565b90508073ffffffffffffffffffffffffffffffffffffffff168473ffffffffffffffffffffffffffffffffffffffff161480611dfa57508373ffffffffffffffffffffffffffffffffffffffff16611de2846104a2565b73ffffffffffffffffffffffffffffffffffffffff16145b80611e0b5750611e0a8185611519565b5b91505092915050565b8273ffffffffffffffffffffffffffffffffffffffff16611e3482610fd0565b73ffffffffffffffffffffffffffffffffffffffff1614611e8a576040517f08c379a0000000000000000000000000000000000000000000000000000000008152600401611e81906138ee565b60405180910390fd5b600073ffffffffffffffffffffffffffffffffffffffff168273ffffffffffffffffffffffffffffffffffffffff161415611efa576040517f08c379a0000000000000000000000000000000000000000000000000000000008152600401611ef1906137ae565b60405180910390fd5b611f0583838361220e565b611f1060008261168b565b6001600360008573ffffffffffffffffffffffffffffffffffffffff1673ffffffffffffffffffffffffffffffffffffffff1681526020019081526020016000206000828254611f609190613b45565b925050819055506001600360008473ffffffffffffffffffffffffffffffffffffffff1673ffffffffffffffffffffffffffffffffffffffff1681526020019081526020016000206000828254611fb79190613a2d565b92505081905550816002600083815260200190815260200160002060006101000a81548173ffffffffffffffffffffffffffffffffffffffff021916908373ffffffffffffffffffffffffffffffffffffffff160217905550808273ffffffffffffffffffffffffffffffffffffffff168473ffffffffffffffffffffffffffffffffffffffff167fddf252ad1be2c89b69c2b068fc378daa952ba7f163c4a11628f55a4df523b3ef60405160405180910390a4505050565b61207b848484611e14565b61208784848484612213565b6120c6576040517f08c379a00000000000000000000000000000000000000000000000000000000081526004016120bd9061376e565b60405180910390fd5b50505050565b606060405180602001604052806000815250905090565b60606120ee82611617565b61212d576040517f08c379a00000000000000000000000000000000000000000000000000000000081526004016121249061390e565b60405180910390fd5b60006121376120cc565b905060008151116121575760405180602001604052806000815250612182565b80612161846123aa565b6040516020016121729291906134e2565b6040516020818303038152906040525b915050919050565b60008151905060006a636f6e736f6c652e6c6f679050602083016000808483855afa5050505050565b6121bd8383612557565b6121ca6000848484612213565b612209576040517f08c379a00000000000000000000000000000000000000000000000000000000081526004016122009061376e565b60405180910390fd5b505050565b505050565b60006122348473ffffffffffffffffffffffffffffffffffffffff16612725565b1561239d578373ffffffffffffffffffffffffffffffffffffffff1663150b7a0261225d611683565b8786866040518563ffffffff1660e01b815260040161227f9493929190613669565b602060405180830381600087803b15801561229957600080fd5b505af19250505080156122ca57506040513d601f19601f820116820180604052508101906122c79190612ab2565b60015b61234d573d80600081146122fa576040519150601f19603f3d011682016040523d82523d6000602084013e6122ff565b606091505b50600081511415612345576040517f08c379a000000000000000000000000000000000000000000000000000000000815260040161233c9061376e565b60405180910390fd5b805181602001fd5b63150b7a0260e01b7bffffffffffffffffffffffffffffffffffffffffffffffffffffffff1916817bffffffffffffffffffffffffffffffffffffffffffffffffffffffff1916149150506123a2565b600190505b949350505050565b606060008214156123f2576040518060400160405280600181526020017f30000000000000000000000000000000000000000000000000000000000000008152509050612552565b600082905060005b6000821461242457808061240d90613c6e565b915050600a8261241d9190613aba565b91506123fa565b60008167ffffffffffffffff811115612466577f4e487b7100000000000000000000000000000000000000000000000000000000600052604160045260246000fd5b6040519080825280601f01601f1916602001820160405280156124985781602001600182028036833780820191505090505b5090505b6000851461254b576001826124b19190613b45565b9150600a856124c09190613ce5565b60306124cc9190613a2d565b60f81b818381518110612508577f4e487b7100000000000000000000000000000000000000000000000000000000600052603260045260246000fd5b60200101907effffffffffffffffffffffffffffffffffffffffffffffffffffffffffffff1916908160001a905350600a856125449190613aba565b945061249c565b8093505050505b919050565b600073ffffffffffffffffffffffffffffffffffffffff168273ffffffffffffffffffffffffffffffffffffffff1614156125c7576040517f08c379a00000000000000000000000000000000000000000000000000000000081526004016125be9061388e565b60405180910390fd5b6125d081611617565b15612610576040517f08c379a00000000000000000000000000000000000000000000000000000000081526004016126079061378e565b60405180910390fd5b61261c6000838361220e565b6001600360008473ffffffffffffffffffffffffffffffffffffffff1673ffffffffffffffffffffffffffffffffffffffff168152602001908152602001600020600082825461266c9190613a2d565b92505081905550816002600083815260200190815260200160002060006101000a81548173ffffffffffffffffffffffffffffffffffffffff021916908373ffffffffffffffffffffffffffffffffffffffff160217905550808273ffffffffffffffffffffffffffffffffffffffff16600073ffffffffffffffffffffffffffffffffffffffff167fddf252ad1be2c89b69c2b068fc378daa952ba7f163c4a11628f55a4df523b3ef60405160405180910390a45050565b600080823b905060008111915050919050565b6040518060c001604052806060815260200160608152602001600081526020016060815260200160608152602001606081525090565b82805461277a90613c3c565b90600052602060002090601f01602090048101928261279c57600085556127e3565b82601f106127b557805160ff19168380011785556127e3565b828001600101855582156127e3579182015b828111156127e25782518255916020019190600101906127c7565b5b5090506127f091906127f4565b5090565b5b8082111561280d5760008160009055506001016127f5565b5090565b600061282461281f846139ba565b613989565b90508281526020810184848401111561283c57600080fd5b612847848285613bfa565b509392505050565b60008135905061285e81613df0565b92915050565b60008135905061287381613e07565b92915050565b60008135905061288881613e1e565b92915050565b60008151905061289d81613e1e565b92915050565b600082601f8301126128b457600080fd5b81356128c4848260208601612811565b91505092915050565b6000813590506128dc81613e35565b92915050565b6000602082840312156128f457600080fd5b60006129028482850161284f565b91505092915050565b6000806040838503121561291e57600080fd5b600061292c8582860161284f565b925050602061293d8582860161284f565b9150509250929050565b60008060006060848603121561295c57600080fd5b600061296a8682870161284f565b935050602061297b8682870161284f565b925050604061298c868287016128cd565b9150509250925092565b600080600080608085870312156129ac57600080fd5b60006129ba8782880161284f565b94505060206129cb8782880161284f565b93505060406129dc878288016128cd565b925050606085013567ffffffffffffffff8111156129f957600080fd5b612a05878288016128a3565b91505092959194509250565b60008060408385031215612a2457600080fd5b6000612a328582860161284f565b9250506020612a4385828601612864565b9150509250929050565b60008060408385031215612a6057600080fd5b6000612a6e8582860161284f565b9250506020612a7f858286016128cd565b9150509250929050565b600060208284031215612a9b57600080fd5b6000612aa984828501612879565b91505092915050565b600060208284031215612ac457600080fd5b6000612ad28482850161288e565b91505092915050565b600060208284031215612aed57600080fd5b6000612afb848285016128cd565b91505092915050565b612b0d81613b79565b82525050565b612b24612b1f82613b79565b613cb7565b82525050565b612b3381613b8b565b82525050565b6000612b44826139ea565b612b4e8185613a00565b9350612b5e818560208601613c09565b612b6781613dd2565b840191505092915050565b6000612b7d826139f5565b612b878185613a11565b9350612b97818560208601613c09565b612ba081613dd2565b840191505092915050565b6000612bb6826139f5565b612bc08185613a22565b9350612bd0818560208601613c09565b80840191505092915050565b6000612be9603283613a11565b91507f4552433732313a207472616e7366657220746f206e6f6e20455243373231526560008301527f63656976657220696d706c656d656e74657200000000000000000000000000006020830152604082019050919050565b6000612c4f600283613a22565b91507f222c0000000000000000000000000000000000000000000000000000000000006000830152600282019050919050565b6000612c8f600b83613a22565b91507f2022696d616765223a20220000000000000000000000000000000000000000006000830152600b82019050919050565b6000612ccf601c83613a11565b91507f4552433732313a20746f6b656e20616c7265616479206d696e746564000000006000830152602082019050919050565b6000612d0f601183613a22565b91507f20226465736372697074696f6e223a20220000000000000000000000000000006000830152601182019050919050565b6000612d4f602483613a11565b91507f4552433732313a207472616e7366657220746f20746865207a65726f2061646460008301527f72657373000000000000000000000000000000000000000000000000000000006020830152604082019050919050565b6000612db5601983613a11565b91507f4552433732313a20617070726f766520746f2063616c6c6572000000000000006000830152602082019050919050565b6000612df5602c83613a11565b91507f4552433732313a206f70657261746f7220717565727920666f72206e6f6e657860008301527f697374656e7420746f6b656e00000000000000000000000000000000000000006020830152604082019050919050565b6000612e5b600783613a22565b91507f697066733a2f2f000000000000000000000000000000000000000000000000006000830152600782019050919050565b6000612e9b603883613a11565b91507f4552433732313a20617070726f76652063616c6c6572206973206e6f74206f7760008301527f6e6572206e6f7220617070726f76656420666f7220616c6c00000000000000006020830152604082019050919050565b6000612f01602a83613a11565b91507f4552433732313a2062616c616e636520717565727920666f7220746865207a6560008301527f726f2061646472657373000000000000000000000000000000000000000000006020830152604082019050919050565b6000612f67602983613a11565b91507f4552433732313a206f776e657220717565727920666f72206e6f6e657869737460008301527f656e7420746f6b656e00000000000000000000000000000000000000000000006020830152604082019050919050565b6000612fcd602e83613a11565b91507f45524337323155524953746f726167653a2055524920736574206f66206e6f6e60008301527f6578697374656e7420746f6b656e0000000000000000000000000000000000006020830152604082019050919050565b6000613033602083613a11565b91507f4552433732313a206d696e7420746f20746865207a65726f20616464726573736000830152602082019050919050565b6000613073603183613a11565b91507f45524337323155524953746f726167653a2055524920717565727920666f722060008301527f6e6f6e6578697374656e7420746f6b656e0000000000000000000000000000006020830152604082019050919050565b60006130d9602c83613a11565b91507f4552433732313a20617070726f76656420717565727920666f72206e6f6e657860008301527f697374656e7420746f6b656e00000000000000000000000000000000000000006020830152604082019050919050565b600061313f602983613a11565b91507f4552433732313a207472616e73666572206f6620746f6b656e2074686174206960008301527f73206e6f74206f776e00000000000000000000000000000000000000000000006020830152604082019050919050565b60006131a5602f83613a11565b91507f4552433732314d657461646174613a2055524920717565727920666f72206e6f60008301527f6e6578697374656e7420746f6b656e00000000000000000000000000000000006020830152604082019050919050565b600061320b600a83613a22565b91507f7b226e616d65223a2022000000000000000000000000000000000000000000006000830152600a82019050919050565b600061324b602183613a11565b91507f4552433732313a20617070726f76616c20746f2063757272656e74206f776e6560008301527f72000000000000000000000000000000000000000000000000000000000000006020830152604082019050919050565b60006132b1604c83613a22565b91507f227d2c7b2274726169745f74797065223a20224d696e7465642077697468207360008301527f4b4c494d41222c2022646973706c61795f74797065223a20226e756d6265722260208301527f2c202276616c7565223a202200000000000000000000000000000000000000006040830152604c82019050919050565b600061333d601d83613a22565b91507f646174613a6170706c69636174696f6e2f6a736f6e3b6261736536342c0000006000830152601d82019050919050565b600061337d603183613a11565b91507f4552433732313a207472616e736665722063616c6c6572206973206e6f74206f60008301527f776e6572206e6f7220617070726f7665640000000000000000000000000000006020830152604082019050919050565b60006133e3601383613a22565b91507f202265787465726e616c5f6c696e6b223a2022000000000000000000000000006000830152601382019050919050565b6000613423603383613a22565b91507f202261747472696275746573223a205b7b2274726169745f74797065223a202260008301527f726172697479222c202276616c7565223a2022000000000000000000000000006020830152603382019050919050565b6000613489600483613a22565b91507f227d5d7d000000000000000000000000000000000000000000000000000000006000830152600482019050919050565b6134c581613be3565b82525050565b6134dc6134d782613be3565b613cdb565b82525050565b60006134ee8285612bab565b91506134fa8284612bab565b91508190509392505050565b6000613511826131fe565b915061351d828a612bab565b915061352882612c42565b915061353382612d02565b915061353f8289612bab565b915061354a82612c42565b915061355582612c82565b915061356082612e4e565b915061356c8288612bab565b915061357782612c42565b9150613582826133d6565b915061358e8287612bab565b915061359a8286612bab565b91506135a582612c42565b91506135b082613416565b91506135bc8285612bab565b91506135c7826132a4565b91506135d38284612bab565b91506135de8261347c565b915081905098975050505050505050565b60006135fa82613330565b91506136068284612bab565b915081905092915050565b600061361d82866134cb565b60208201915061362d8285612b13565b60148201915061363d82846134cb565b602082019150819050949350505050565b60006020820190506136636000830184612b04565b92915050565b600060808201905061367e6000830187612b04565b61368b6020830186612b04565b61369860408301856134bc565b81810360608301526136aa8184612b39565b905095945050505050565b60006040820190506136ca6000830185612b04565b6136d760208301846134bc565b9392505050565b60006020820190506136f36000830184612b2a565b92915050565b600060208201905081810360008301526137138184612b72565b905092915050565b600060808201905081810360008301526137358187612b72565b905061374460208301866134bc565b6137516040830185612b04565b81810360608301526137638184612b72565b905095945050505050565b6000602082019050818103600083015261378781612bdc565b9050919050565b600060208201905081810360008301526137a781612cc2565b9050919050565b600060208201905081810360008301526137c781612d42565b9050919050565b600060208201905081810360008301526137e781612da8565b9050919050565b6000602082019050818103600083015261380781612de8565b9050919050565b6000602082019050818103600083015261382781612e8e565b9050919050565b6000602082019050818103600083015261384781612ef4565b9050919050565b6000602082019050818103600083015261386781612f5a565b9050919050565b6000602082019050818103600083015261388781612fc0565b9050919050565b600060208201905081810360008301526138a781613026565b9050919050565b600060208201905081810360008301526138c781613066565b9050919050565b600060208201905081810360008301526138e7816130cc565b9050919050565b6000602082019050818103600083015261390781613132565b9050919050565b6000602082019050818103600083015261392781613198565b9050919050565b600060208201905081810360008301526139478161323e565b9050919050565b6000602082019050818103600083015261396781613370565b9050919050565b600060208201905061398360008301846134bc565b92915050565b6000604051905081810181811067ffffffffffffffff821117156139b0576139af613da3565b5b8060405250919050565b600067ffffffffffffffff8211156139d5576139d4613da3565b5b601f19601f8301169050602081019050919050565b600081519050919050565b600081519050919050565b600082825260208201905092915050565b600082825260208201905092915050565b600081905092915050565b6000613a3882613be3565b9150613a4383613be3565b9250827fffffffffffffffffffffffffffffffffffffffffffffffffffffffffffffffff03821115613a7857613a77613d16565b5b828201905092915050565b6000613a8e82613bed565b9150613a9983613bed565b92508260ff03821115613aaf57613aae613d16565b5b828201905092915050565b6000613ac582613be3565b9150613ad083613be3565b925082613ae057613adf613d45565b5b828204905092915050565b6000613af682613be3565b9150613b0183613be3565b9250817fffffffffffffffffffffffffffffffffffffffffffffffffffffffffffffffff0483118215151615613b3a57613b39613d16565b5b828202905092915050565b6000613b5082613be3565b9150613b5b83613be3565b925082821015613b6e57613b6d613d16565b5b828203905092915050565b6000613b8482613bc3565b9050919050565b60008115159050919050565b60007fffffffff0000000000000000000000000000000000000000000000000000000082169050919050565b600073ffffffffffffffffffffffffffffffffffffffff82169050919050565b6000819050919050565b600060ff82169050919050565b82818337600083830152505050565b60005b83811015613c27578082015181840152602081019050613c0c565b83811115613c36576000848401525b50505050565b60006002820490506001821680613c5457607f821691505b60208210811415613c6857613c67613d74565b5b50919050565b6000613c7982613be3565b91507fffffffffffffffffffffffffffffffffffffffffffffffffffffffffffffffff821415613cac57613cab613d16565b5b600182019050919050565b6000613cc282613cc9565b9050919050565b6000613cd482613de3565b9050919050565b6000819050919050565b6000613cf082613be3565b9150613cfb83613be3565b925082613d0b57613d0a613d45565b5b828206905092915050565b7f4e487b7100000000000000000000000000000000000000000000000000000000600052601160045260246000fd5b7f4e487b7100000000000000000000000000000000000000000000000000000000600052601260045260246000fd5b7f4e487b7100000000000000000000000000000000000000000000000000000000600052602260045260246000fd5b7f4e487b7100000000000000000000000000000000000000000000000000000000600052604160045260246000fd5b6000601f19601f8301169050919050565b60008160601b9050919050565b613df981613b79565b8114613e0457600080fd5b50565b613e1081613b8b565b8114613e1b57600080fd5b50565b613e2781613b97565b8114613e3257600080fd5b50565b613e3e81613be3565b8114613e4957600080fd5b5056fe416e204e465420772f20494420257320686173206265656e206d696e74656420746f202573516d5645735336715176617462417243534e59694a554a414b556932386f724448316444324c6f47556236765a47516d536d62387276774e7050416271613757697072336f654248596a5473715332333670417957773472687570394142434445464748494a4b4c4d4e4f505152535455565758595a6162636465666768696a6b6c6d6e6f707172737475767778797a303132333435363738392b2f516d55336a58636475386a47626664524c7555326850444c4d4b393368694838615078314d506f6261536f73664641207472696275746520746f207468652065617274682773206e61747572616c20626561757479206d6164652076697369626c652062792068756d616e20696e67656e756974792ea26469706673582212208872b4d4aad470397a107f81579b1e7fc9df1640d500bedd25a838ff0d5f8d6e64736f6c63430008000033",
  "linkReferences": {},
  "deployedLinkReferences": {}
}