{
  "_format": "hh-sol-artifact-1",
  "contractName": "KlimaGarden",
  "sourceName": "contracts/KlimaGarden.sol",
  "abi": [
    {
      "inputs": [],
      "stateMutability": "nonpayable",
      "type": "constructor"
    },
    {
      "anonymous": false,
      "inputs": [
        {
          "indexed": true,
          "internalType": "address",
          "name": "owner",
          "type": "address"
        },
        {
          "indexed": true,
          "internalType": "address",
          "name": "approved",
          "type": "address"
        },
        {
          "indexed": true,
          "internalType": "uint256",
          "name": "tokenId",
          "type": "uint256"
        }
      ],
      "name": "Approval",
      "type": "event"
    },
    {
      "anonymous": false,
      "inputs": [
        {
          "indexed": true,
          "internalType": "address",
          "name": "owner",
          "type": "address"
        },
        {
          "indexed": true,
          "internalType": "address",
          "name": "operator",
          "type": "address"
        },
        {
          "indexed": false,
          "internalType": "bool",
          "name": "approved",
          "type": "bool"
        }
      ],
      "name": "ApprovalForAll",
      "type": "event"
    },
    {
      "anonymous": false,
      "inputs": [
        {
          "indexed": true,
          "internalType": "bytes32",
          "name": "requestId",
          "type": "bytes32"
        },
        {
          "indexed": true,
          "internalType": "uint256",
          "name": "result",
          "type": "uint256"
        }
      ],
      "name": "LotteryFinished",
      "type": "event"
    },
    {
      "anonymous": false,
      "inputs": [
        {
          "indexed": true,
          "internalType": "bytes32",
          "name": "requestId",
          "type": "bytes32"
        },
        {
          "indexed": true,
          "internalType": "address",
          "name": "roller",
          "type": "address"
        }
      ],
      "name": "LotteryStarted",
      "type": "event"
    },
    {
      "anonymous": false,
      "inputs": [
        {
          "indexed": false,
          "internalType": "address",
          "name": "sender",
          "type": "address"
        },
        {
          "indexed": false,
          "internalType": "uint256",
          "name": "tokenId",
          "type": "uint256"
        }
      ],
      "name": "NewKlimaGardenMinted",
      "type": "event"
    },
    {
      "anonymous": false,
      "inputs": [
        {
          "indexed": true,
          "internalType": "address",
          "name": "from",
          "type": "address"
        },
        {
          "indexed": true,
          "internalType": "address",
          "name": "to",
          "type": "address"
        },
        {
          "indexed": true,
          "internalType": "uint256",
          "name": "tokenId",
          "type": "uint256"
        }
      ],
      "name": "Transfer",
      "type": "event"
    },
    {
      "inputs": [
        {
          "internalType": "address",
          "name": "to",
          "type": "address"
        },
        {
          "internalType": "uint256",
          "name": "tokenId",
          "type": "uint256"
        }
      ],
      "name": "approve",
      "outputs": [],
      "stateMutability": "nonpayable",
      "type": "function"
    },
    {
      "inputs": [
        {
          "internalType": "address",
          "name": "owner",
          "type": "address"
        }
      ],
      "name": "balanceOf",
      "outputs": [
        {
          "internalType": "uint256",
          "name": "",
          "type": "uint256"
        }
      ],
      "stateMutability": "view",
      "type": "function"
    },
    {
      "inputs": [
        {
          "internalType": "uint256",
          "name": "tokenId",
          "type": "uint256"
        }
      ],
      "name": "getApproved",
      "outputs": [
        {
          "internalType": "address",
          "name": "",
          "type": "address"
        }
      ],
      "stateMutability": "view",
      "type": "function"
    },
    {
      "inputs": [
        {
          "internalType": "address",
          "name": "owner",
          "type": "address"
        },
        {
          "internalType": "address",
          "name": "operator",
          "type": "address"
        }
      ],
      "name": "isApprovedForAll",
      "outputs": [
        {
          "internalType": "bool",
          "name": "",
          "type": "bool"
        }
      ],
      "stateMutability": "view",
      "type": "function"
    },
    {
      "inputs": [
        {
          "internalType": "uint256",
          "name": "sklimaBalance",
          "type": "uint256"
        }
      ],
      "name": "makeNFT",
      "outputs": [],
      "stateMutability": "nonpayable",
      "type": "function"
    },
    {
      "inputs": [],
      "name": "name",
      "outputs": [
        {
          "internalType": "string",
          "name": "",
          "type": "string"
        }
      ],
      "stateMutability": "view",
      "type": "function"
    },
    {
      "inputs": [
        {
          "internalType": "uint256",
          "name": "tokenId",
          "type": "uint256"
        }
      ],
      "name": "ownerOf",
      "outputs": [
        {
          "internalType": "address",
          "name": "",
          "type": "address"
        }
      ],
      "stateMutability": "view",
      "type": "function"
    },
    {
      "inputs": [
        {
          "internalType": "bytes32",
          "name": "requestId",
          "type": "bytes32"
        },
        {
          "internalType": "uint256",
          "name": "randomness",
          "type": "uint256"
        }
      ],
      "name": "rawFulfillRandomness",
      "outputs": [],
      "stateMutability": "nonpayable",
      "type": "function"
    },
    {
      "inputs": [
        {
          "internalType": "address",
          "name": "from",
          "type": "address"
        },
        {
          "internalType": "address",
          "name": "to",
          "type": "address"
        },
        {
          "internalType": "uint256",
          "name": "tokenId",
          "type": "uint256"
        }
      ],
      "name": "safeTransferFrom",
      "outputs": [],
      "stateMutability": "nonpayable",
      "type": "function"
    },
    {
      "inputs": [
        {
          "internalType": "address",
          "name": "from",
          "type": "address"
        },
        {
          "internalType": "address",
          "name": "to",
          "type": "address"
        },
        {
          "internalType": "uint256",
          "name": "tokenId",
          "type": "uint256"
        },
        {
          "internalType": "bytes",
          "name": "_data",
          "type": "bytes"
        }
      ],
      "name": "safeTransferFrom",
      "outputs": [],
      "stateMutability": "nonpayable",
      "type": "function"
    },
    {
      "inputs": [
        {
          "internalType": "address",
          "name": "operator",
          "type": "address"
        },
        {
          "internalType": "bool",
          "name": "approved",
          "type": "bool"
        }
      ],
      "name": "setApprovalForAll",
      "outputs": [],
      "stateMutability": "nonpayable",
      "type": "function"
    },
    {
      "inputs": [
        {
          "internalType": "bytes4",
          "name": "interfaceId",
          "type": "bytes4"
        }
      ],
      "name": "supportsInterface",
      "outputs": [
        {
          "internalType": "bool",
          "name": "",
          "type": "bool"
        }
      ],
      "stateMutability": "view",
      "type": "function"
    },
    {
      "inputs": [],
      "name": "symbol",
      "outputs": [
        {
          "internalType": "string",
          "name": "",
          "type": "string"
        }
      ],
      "stateMutability": "view",
      "type": "function"
    },
    {
      "inputs": [
        {
          "internalType": "uint256",
          "name": "tokenId",
          "type": "uint256"
        }
      ],
      "name": "tokenURI",
      "outputs": [
        {
          "internalType": "string",
          "name": "",
          "type": "string"
        }
      ],
      "stateMutability": "view",
      "type": "function"
    },
    {
      "inputs": [
        {
          "internalType": "address",
          "name": "from",
          "type": "address"
        },
        {
          "internalType": "address",
          "name": "to",
          "type": "address"
        },
        {
          "internalType": "uint256",
          "name": "tokenId",
          "type": "uint256"
        }
      ],
      "name": "transferFrom",
      "outputs": [],
      "stateMutability": "nonpayable",
      "type": "function"
    }
  ],
  "bytecode": "0x60c06040526000600f553480156200001657600080fd5b50738c7382f9d8f56b33781fe506e897a4f1e2d1725573326c977e6efc84e512bb9c30f76e30c160ed06fb6040518060400160405280600c81526020017f6b6c696d612e67617264656e00000000000000000000000000000000000000008152506040518060400160405280600581526020017f4b4752444e0000000000000000000000000000000000000000000000000000008152508160009080519060200190620000c59291906200018e565b508060019080519060200190620000de9291906200018e565b5050508173ffffffffffffffffffffffffffffffffffffffff1660a08173ffffffffffffffffffffffffffffffffffffffff1660601b815250508073ffffffffffffffffffffffffffffffffffffffff1660808173ffffffffffffffffffffffffffffffffffffffff1660601b8152505050507f6e75b569a01ef56d18cab6a8e71e6600d6ce853834d4a5748b720d06f878b3a460001b600d81905550655af3107a4000600e81905550620002a3565b8280546200019c906200023e565b90600052602060002090601f016020900481019282620001c057600085556200020c565b82601f10620001db57805160ff19168380011785556200020c565b828001600101855582156200020c579182015b828111156200020b578251825591602001919060010190620001ee565b5b5090506200021b91906200021f565b5090565b5b808211156200023a57600081600090555060010162000220565b5090565b600060028204905060018216806200025757607f821691505b602082108114156200026e576200026d62000274565b5b50919050565b7f4e487b7100000000000000000000000000000000000000000000000000000000600052602260045260246000fd5b60805160601c60a05160601c614b3d620002dd60003960008181610986015261190701526000818161101901526118cb0152614b3d6000f3fe608060405234801561001057600080fd5b50600436106100f55760003560e01c80636352211e11610097578063a22cb46511610066578063a22cb46514610282578063b88d4fde1461029e578063c87b56dd146102ba578063e985e9c5146102ea576100f5565b80636352211e146101e857806370a082311461021857806394985ddd1461024857806395d89b4114610264576100f5565b8063095ea7b3116100d3578063095ea7b314610178578063226c264d1461019457806323b872dd146101b057806342842e0e146101cc576100f5565b806301ffc9a7146100fa57806306fdde031461012a578063081812fc14610148575b600080fd5b610114600480360381019061010f91906132ff565b61031a565b60405161012191906140df565b60405180910390f35b6101326103fc565b60405161013f9190614168565b60405180910390f35b610162600480360381019061015d9190613351565b61048e565b60405161016f9190614011565b60405180910390f35b610192600480360381019061018d919061325e565b610513565b005b6101ae60048036038101906101a99190613351565b61062b565b005b6101ca60048036038101906101c59190613158565b61079a565b005b6101e660048036038101906101e19190613158565b6107fa565b005b61020260048036038101906101fd9190613351565b61081a565b60405161020f9190614011565b60405180910390f35b610232600480360381019061022d91906130f3565b6108cc565b60405161023f919061445d565b60405180910390f35b610262600480360381019061025d91906132c3565b610984565b005b61026c610a20565b6040516102799190614168565b60405180910390f35b61029c60048036038101906102979190613222565b610ab2565b005b6102b860048036038101906102b391906131a7565b610c33565b005b6102d460048036038101906102cf9190613351565b610c95565b6040516102e19190614168565b60405180910390f35b61030460048036038101906102ff919061311c565b610de7565b60405161031191906140df565b60405180910390f35b60007f80ac58cd000000000000000000000000000000000000000000000000000000007bffffffffffffffffffffffffffffffffffffffffffffffffffffffff1916827bffffffffffffffffffffffffffffffffffffffffffffffffffffffff191614806103e557507f5b5e139f000000000000000000000000000000000000000000000000000000007bffffffffffffffffffffffffffffffffffffffffffffffffffffffff1916827bffffffffffffffffffffffffffffffffffffffffffffffffffffffff1916145b806103f557506103f482610e7b565b5b9050919050565b60606000805461040b9061477b565b80601f01602080910402602001604051908101604052809291908181526020018280546104379061477b565b80156104845780601f1061045957610100808354040283529160200191610484565b820191906000526020600020905b81548152906001019060200180831161046757829003601f168201915b5050505050905090565b600061049982610ee5565b6104d8576040517f08c379a00000000000000000000000000000000000000000000000000000000081526004016104cf9061437d565b60405180910390fd5b6004600083815260200190815260200160002060009054906101000a900473ffffffffffffffffffffffffffffffffffffffff169050919050565b600061051e8261081a565b90508073ffffffffffffffffffffffffffffffffffffffff168373ffffffffffffffffffffffffffffffffffffffff16141561058f576040517f08c379a0000000000000000000000000000000000000000000000000000000008152600401610586906143fd565b60405180910390fd5b8073ffffffffffffffffffffffffffffffffffffffff166105ae610f51565b73ffffffffffffffffffffffffffffffffffffffff1614806105dd57506105dc816105d7610f51565b610de7565b5b61061c576040517f08c379a0000000000000000000000000000000000000000000000000000000008152600401610613906142bd565b60405180910390fd5b6106268383610f59565b505050565b600060ff16600960003373ffffffffffffffffffffffffffffffffffffffff1673ffffffffffffffffffffffffffffffffffffffff16815260200190815260200160002060009054906101000a900461ffff1661ffff16146106c2576040517f08c379a00000000000000000000000000000000000000000000000000000000081526004016106b99061427d565b60405180910390fd5b60006106cc611012565b905081600b600083815260200190815260200160002081905550600160ff16600960003373ffffffffffffffffffffffffffffffffffffffff1673ffffffffffffffffffffffffffffffffffffffff16815260200190815260200160002060006101000a81548161ffff021916908361ffff16021790555033600a600083815260200190815260200160002060006101000a81548173ffffffffffffffffffffffffffffffffffffffff021916908373ffffffffffffffffffffffffffffffffffffffff1602179055505050565b6107ab6107a5610f51565b82611114565b6107ea576040517f08c379a00000000000000000000000000000000000000000000000000000000081526004016107e19061443d565b60405180910390fd5b6107f58383836111f2565b505050565b61081583838360405180602001604052806000815250610c33565b505050565b6000806002600084815260200190815260200160002060009054906101000a900473ffffffffffffffffffffffffffffffffffffffff169050600073ffffffffffffffffffffffffffffffffffffffff168173ffffffffffffffffffffffffffffffffffffffff1614156108c3576040517f08c379a00000000000000000000000000000000000000000000000000000000081526004016108ba906142fd565b60405180910390fd5b80915050919050565b60008073ffffffffffffffffffffffffffffffffffffffff168273ffffffffffffffffffffffffffffffffffffffff16141561093d576040517f08c379a0000000000000000000000000000000000000000000000000000000008152600401610934906142dd565b60405180910390fd5b600360008373ffffffffffffffffffffffffffffffffffffffff1673ffffffffffffffffffffffffffffffffffffffff168152602001908152602001600020549050919050565b7f000000000000000000000000000000000000000000000000000000000000000073ffffffffffffffffffffffffffffffffffffffff163373ffffffffffffffffffffffffffffffffffffffff1614610a12576040517f08c379a0000000000000000000000000000000000000000000000000000000008152600401610a09906143dd565b60405180910390fd5b610a1c828261144e565b5050565b606060018054610a2f9061477b565b80601f0160208091040260200160405190810160405280929190818152602001828054610a5b9061477b565b8015610aa85780601f10610a7d57610100808354040283529160200191610aa8565b820191906000526020600020905b815481529060010190602001808311610a8b57829003601f168201915b5050505050905090565b610aba610f51565b73ffffffffffffffffffffffffffffffffffffffff168273ffffffffffffffffffffffffffffffffffffffff161415610b28576040517f08c379a0000000000000000000000000000000000000000000000000000000008152600401610b1f9061423d565b60405180910390fd5b8060056000610b35610f51565b73ffffffffffffffffffffffffffffffffffffffff1673ffffffffffffffffffffffffffffffffffffffff16815260200190815260200160002060008473ffffffffffffffffffffffffffffffffffffffff1673ffffffffffffffffffffffffffffffffffffffff16815260200190815260200160002060006101000a81548160ff0219169083151502179055508173ffffffffffffffffffffffffffffffffffffffff16610be2610f51565b73ffffffffffffffffffffffffffffffffffffffff167f17307eab39ab6107e8899845ad3d59bd9653f200f220920489ca2b5937696c3183604051610c2791906140df565b60405180910390a35050565b610c44610c3e610f51565b83611114565b610c83576040517f08c379a0000000000000000000000000000000000000000000000000000000008152600401610c7a9061443d565b60405180910390fd5b610c8f848484846117ad565b50505050565b6060610ca082610ee5565b610cdf576040517f08c379a0000000000000000000000000000000000000000000000000000000008152600401610cd69061435d565b60405180910390fd5b6000600660008481526020019081526020016000208054610cff9061477b565b80601f0160208091040260200160405190810160405280929190818152602001828054610d2b9061477b565b8015610d785780601f10610d4d57610100808354040283529160200191610d78565b820191906000526020600020905b815481529060010190602001808311610d5b57829003601f168201915b505050505090506000610d89611809565b9050600081511415610d9f578192505050610de2565b600082511115610dd4578082604051602001610dbc929190613ee2565b60405160208183030381529060405292505050610de2565b610ddd84611820565b925050505b919050565b6000600560008473ffffffffffffffffffffffffffffffffffffffff1673ffffffffffffffffffffffffffffffffffffffff16815260200190815260200160002060008373ffffffffffffffffffffffffffffffffffffffff1673ffffffffffffffffffffffffffffffffffffffff16815260200190815260200160002060009054906101000a900460ff16905092915050565b60007f01ffc9a7000000000000000000000000000000000000000000000000000000007bffffffffffffffffffffffffffffffffffffffffffffffffffffffff1916827bffffffffffffffffffffffffffffffffffffffffffffffffffffffff1916149050919050565b60008073ffffffffffffffffffffffffffffffffffffffff166002600084815260200190815260200160002060009054906101000a900473ffffffffffffffffffffffffffffffffffffffff1673ffffffffffffffffffffffffffffffffffffffff1614159050919050565b600033905090565b816004600083815260200190815260200160002060006101000a81548173ffffffffffffffffffffffffffffffffffffffff021916908373ffffffffffffffffffffffffffffffffffffffff160217905550808273ffffffffffffffffffffffffffffffffffffffff16610fcc8361081a565b73ffffffffffffffffffffffffffffffffffffffff167f8c5be1e5ebec7d5bd14f71427d1e84f3dd0314c0f7b2291e5b200ac8c7c3b92560405160405180910390a45050565b6000600e547f000000000000000000000000000000000000000000000000000000000000000073ffffffffffffffffffffffffffffffffffffffff166370a08231306040518263ffffffff1660e01b81526004016110709190614011565b60206040518083038186803b15801561108857600080fd5b505afa15801561109c573d6000803e3d6000fd5b505050506040513d601f19601f820116820180604052508101906110c0919061337a565b1015611101576040517f08c379a00000000000000000000000000000000000000000000000000000000081526004016110f89061429d565b60405180910390fd5b61110f600d54600e546118c7565b905090565b600061111f82610ee5565b61115e576040517f08c379a00000000000000000000000000000000000000000000000000000000081526004016111559061425d565b60405180910390fd5b60006111698361081a565b90508073ffffffffffffffffffffffffffffffffffffffff168473ffffffffffffffffffffffffffffffffffffffff1614806111d857508373ffffffffffffffffffffffffffffffffffffffff166111c08461048e565b73ffffffffffffffffffffffffffffffffffffffff16145b806111e957506111e88185610de7565b5b91505092915050565b8273ffffffffffffffffffffffffffffffffffffffff166112128261081a565b73ffffffffffffffffffffffffffffffffffffffff1614611268576040517f08c379a000000000000000000000000000000000000000000000000000000000815260040161125f9061439d565b60405180910390fd5b600073ffffffffffffffffffffffffffffffffffffffff168273ffffffffffffffffffffffffffffffffffffffff1614156112d8576040517f08c379a00000000000000000000000000000000000000000000000000000000081526004016112cf9061421d565b60405180910390fd5b6112e3838383611a29565b6112ee600082610f59565b6001600360008573ffffffffffffffffffffffffffffffffffffffff1673ffffffffffffffffffffffffffffffffffffffff168152602001908152602001600020600082825461133e919061466c565b925050819055506001600360008473ffffffffffffffffffffffffffffffffffffffff1673ffffffffffffffffffffffffffffffffffffffff16815260200190815260200160002060008282546113959190614554565b92505081905550816002600083815260200190815260200160002060006101000a81548173ffffffffffffffffffffffffffffffffffffffff021916908373ffffffffffffffffffffffffffffffffffffffff160217905550808273ffffffffffffffffffffffffffffffffffffffff168473ffffffffffffffffffffffffffffffffffffffff167fddf252ad1be2c89b69c2b068fc378daa952ba7f163c4a11628f55a4df523b3ef60405160405180910390a4505050565b600060ff1660096000600a600086815260200190815260200160002060009054906101000a900473ffffffffffffffffffffffffffffffffffffffff1673ffffffffffffffffffffffffffffffffffffffff1673ffffffffffffffffffffffffffffffffffffffff16815260200190815260200160002060006101000a81548161ffff021916908361ffff16021790555060006114eb6008611a2e565b90506000600161054d846114ff919061485f565b6115099190614554565b9050600061151682611a3c565b90506000611536600b60008881526020019081526020016000205461236e565b9050600061158a83602001518460c0015185604001518660a0015161155a8a61236e565b8860800151886040516020016115769796959493929190613f06565b604051602081830303815290604052612543565b905060008160405160200161159f9190613fef565b60405160208183030381529060405290506115ee6040518060400160405280601581526020017f0a2d2d2d2d2d2d2d2d2d2d2d2d2d2d2d2d2d2d2d2d0000000000000000000000815250612701565b6115f781612701565b6116356040518060400160405280601581526020017f2d2d2d2d2d2d2d2d2d2d2d2d2d2d2d2d2d2d2d2d0a0000000000000000000000815250612701565b611672600a60008a815260200190815260200160002060009054906101000a900473ffffffffffffffffffffffffffffffffffffffff168761279a565b600c6000856000015160ff1660ff168152602001908152602001600020600081819054906101000a900461ffff16809291906116ad906147ad565b91906101000a81548161ffff021916908361ffff160217905550506116d286826127b8565b61172d6040518060600160405280602581526020016149d16025913987600a60008c815260200190815260200160002060009054906101000a900473ffffffffffffffffffffffffffffffffffffffff16876020015161282c565b61173760086128ce565b7fb0608e84c0ee085336e90edfdd8891576e0761b98002aa076756b6ceb423d14a600a60008a815260200190815260200160002060009054906101000a900473ffffffffffffffffffffffffffffffffffffffff168760405161179b929190614078565b60405180910390a15050505050505050565b6117b88484846111f2565b6117c4848484846128e4565b611803576040517f08c379a00000000000000000000000000000000000000000000000000000000081526004016117fa906141dd565b60405180910390fd5b50505050565b606060405180602001604052806000815250905090565b606061182b82610ee5565b61186a576040517f08c379a0000000000000000000000000000000000000000000000000000000008152600401611861906143bd565b60405180910390fd5b6000611874611809565b9050600081511161189457604051806020016040528060008152506118bf565b8061189e84612a7b565b6040516020016118af929190613ee2565b6040516020818303038152906040525b915050919050565b60007f000000000000000000000000000000000000000000000000000000000000000073ffffffffffffffffffffffffffffffffffffffff16634000aea07f00000000000000000000000000000000000000000000000000000000000000008486600060405160200161193b9291906140fa565b6040516020818303038152906040526040518463ffffffff1660e01b8152600401611968939291906140a1565b602060405180830381600087803b15801561198257600080fd5b505af1158015611996573d6000803e3d6000fd5b505050506040513d601f19601f820116820180604052508101906119ba919061329a565b5060006119dd846000306007600089815260200190815260200160002054612c28565b9050600160076000868152602001908152602001600020546119ff9190614554565b6007600086815260200190815260200160002081905550611a208482612c64565b91505092915050565b505050565b600081600001549050919050565b611a44612efc565b6000600467ffffffffffffffff811115611a87577f4e487b7100000000000000000000000000000000000000000000000000000000600052604160045260246000fd5b604051908082528060200260200182016040528015611ac057816020015b611aad612efc565b815260200190600190039081611aa55790505b5090506040518060e00160405280600060ff1681526020016040518060400160405280601081526020017f426c7565205269646765204c6f2d46690000000000000000000000000000000081525081526020016040518060600160405280602e81526020016149f6602e913981526020016103e861ffff1681526020016040518060400160405280600681526020017f636f6d6d6f6e000000000000000000000000000000000000000000000000000081525081526020016040518060400160405280601981526020017f68747470733a2f2f6b6c696d612e67617264656e2f332c332f000000000000008152508152602001604051806080016040528060488152602001614ac06048913981525081600060ff1681518110611c0c577f4e487b7100000000000000000000000000000000000000000000000000000000600052603260045260246000fd5b60200260200101819052506040518060e00160405280600160ff1681526020016040518060400160405280601281526020017f436f6d66792028747265652c207472656529000000000000000000000000000081525081526020016040518060600160405280602e8152602001614a24602e9139815260200161014361ffff1681526020016040518060400160405280600481526020017f726172650000000000000000000000000000000000000000000000000000000081525081526020016040518060400160405280601981526020017f68747470733a2f2f6b6c696d612e67617264656e2f332c332f0000000000000081525081526020016040518060400160405280601481526020017f436f6d6679204b6c696d617465732028332c332900000000000000000000000081525081525081600160ff1681518110611d7d577f4e487b7100000000000000000000000000000000000000000000000000000000600052603260045260246000fd5b60200260200101819052506040518060e00160405280600260ff1681526020016040518060400160405280600981526020017f536571756573746572000000000000000000000000000000000000000000000081525081526020016040518060600160405280602e8152602001614a92602e91398152602001602161ffff1681526020016040518060400160405280600a81526020017f756c74726120726172650000000000000000000000000000000000000000000081525081526020016040518060400160405280601981526020017f68747470733a2f2f6b6c696d612e67617264656e2f332c332f0000000000000081525081526020016040518060400160405280601281526020017f53657175657374657220746f2072656e6577000000000000000000000000000081525081525081600260ff1681518110611eed577f4e487b7100000000000000000000000000000000000000000000000000000000600052603260045260246000fd5b60200260200101819052506040518060e00160405280600260ff1681526020016040518060400160405280600981526020017f3f3f3f3f3f3f3f3f3f000000000000000000000000000000000000000000000081525081526020016040518060600160405280602e8152602001614a92602e91398152602001600161ffff1681526020016040518060400160405280600d81526020017f6f6e65206f662061206b696e640000000000000000000000000000000000000081525081526020016040518060400160405280601981526020017f68747470733a2f2f6b6c696d612e67617264656e2f332c332f0000000000000081525081526020016040518060400160405280601281526020017f53657175657374657220746f2072656e6577000000000000000000000000000081525081525081600360ff168151811061205d577f4e487b7100000000000000000000000000000000000000000000000000000000600052603260045260246000fd5b602002602001018190525060005b60018461ffff161161210a5781600360ff16815181106120b4577f4e487b7100000000000000000000000000000000000000000000000000000000600052603260045260246000fd5b60200260200101519250600c6000600360ff1660ff16815260200190815260200160002060009054906101000a900461ffff1661ffff16836060015161ffff161161210957600184612106919061451c565b93505b5b60018461ffff16118015612123575060228461ffff1611155b156121bb5781600260ff1681518110612165577f4e487b7100000000000000000000000000000000000000000000000000000000600052603260045260246000fd5b60200260200101519250600c6000600260ff1660ff16815260200190815260200160002060009054906101000a900461ffff1661ffff16836060015161ffff16116121ba576022846121b7919061451c565b93505b5b60228461ffff161180156121d557506101658461ffff1611155b1561226e5781600160ff1681518110612217577f4e487b7100000000000000000000000000000000000000000000000000000000600052603260045260246000fd5b60200260200101519250600c6000600260ff1660ff16815260200190815260200160002060009054906101000a900461ffff1661ffff16836060015161ffff161161226d576101658461226a919061451c565b93505b5b6101658461ffff1611156123115781600060ff16815181106122b9577f4e487b7100000000000000000000000000000000000000000000000000000000600052603260045260246000fd5b60200260200101519250600c60008060ff1660ff16815260200190815260200160002060009054906101000a900461ffff1661ffff16836060015161ffff16116123105760019350808061230c90614821565b9150505b5b60018160ff161461206b576000836060015161ffff1611612367576040517f08c379a000000000000000000000000000000000000000000000000000000000815260040161235e9061441d565b60405180910390fd5b5050919050565b606060008214156123b6576040518060400160405280600181526020017f3000000000000000000000000000000000000000000000000000000000000000815250905061253e565b600082905060005b600082146123e85780806123d1906147d8565b915050600a826123e191906145e1565b91506123be565b60008167ffffffffffffffff81111561242a577f4e487b7100000000000000000000000000000000000000000000000000000000600052604160045260246000fd5b6040519080825280601f01601f19166020018201604052801561245c5781602001600182028036833780820191505090505b50905060008290505b600086146125365760018161247a919061466c565b90506000600a808861248c91906145e1565b6124969190614612565b876124a1919061466c565b60306124ad91906145aa565b905060008160f81b9050808484815181106124f1577f4e487b7100000000000000000000000000000000000000000000000000000000600052603260045260246000fd5b60200101907effffffffffffffffffffffffffffffffffffffffffffffffffffffffffffff1916908160001a905350600a8861252d91906145e1565b97505050612465565b819450505050505b919050565b6060600082519050600081141561256c57604051806020016040528060008152509150506126fc565b6000600360028361257d9190614554565b61258791906145e1565b60046125939190614612565b905060006020826125a49190614554565b67ffffffffffffffff8111156125e3577f4e487b7100000000000000000000000000000000000000000000000000000000600052604160045260246000fd5b6040519080825280601f01601f1916602001820160405280156126155781602001600182028036833780820191505090505b5090506000604051806060016040528060408152602001614a52604091399050600181016020830160005b868110156126b95760038101905062ffffff818a015116603f8160121c168401518060081b905060ff603f83600c1c1686015116810190508060081b905060ff603f8360061c1686015116810190508060081b905060ff603f831686015116810190508060e01b90508084526004840193505050612640565b5060038606600181146126d357600281146126e3576126ee565b613d3d60f01b60028303526126ee565b603d60f81b60018303525b508484525050819450505050505b919050565b612797816040516024016127159190614168565b6040516020818303038152906040527f41304fac000000000000000000000000000000000000000000000000000000007bffffffffffffffffffffffffffffffffffffffffffffffffffffffff19166020820180517bffffffffffffffffffffffffffffffffffffffffffffffffffffffff8381831617835250505050612c97565b50565b6127b4828260405180602001604052806000815250612cc0565b5050565b6127c182610ee5565b612800576040517f08c379a00000000000000000000000000000000000000000000000000000000081526004016127f79061431d565b60405180910390fd5b80600660008481526020019081526020016000209080519060200190612827929190612f40565b505050565b6128c884848484604051602401612846949392919061418a565b6040516020818303038152906040527f3254c2e8000000000000000000000000000000000000000000000000000000007bffffffffffffffffffffffffffffffffffffffffffffffffffffffff19166020820180517bffffffffffffffffffffffffffffffffffffffffffffffffffffffff8381831617835250505050612c97565b50505050565b6001816000016000828254019250508190555050565b60006129058473ffffffffffffffffffffffffffffffffffffffff16612d1b565b15612a6e578373ffffffffffffffffffffffffffffffffffffffff1663150b7a0261292e610f51565b8786866040518563ffffffff1660e01b8152600401612950949392919061402c565b602060405180830381600087803b15801561296a57600080fd5b505af192505050801561299b57506040513d601f19601f820116820180604052508101906129989190613328565b60015b612a1e573d80600081146129cb576040519150601f19603f3d011682016040523d82523d6000602084013e6129d0565b606091505b50600081511415612a16576040517f08c379a0000000000000000000000000000000000000000000000000000000008152600401612a0d906141dd565b60405180910390fd5b805181602001fd5b63150b7a0260e01b7bffffffffffffffffffffffffffffffffffffffffffffffffffffffff1916817bffffffffffffffffffffffffffffffffffffffffffffffffffffffff191614915050612a73565b600190505b949350505050565b60606000821415612ac3576040518060400160405280600181526020017f30000000000000000000000000000000000000000000000000000000000000008152509050612c23565b600082905060005b60008214612af5578080612ade906147d8565b915050600a82612aee91906145e1565b9150612acb565b60008167ffffffffffffffff811115612b37577f4e487b7100000000000000000000000000000000000000000000000000000000600052604160045260246000fd5b6040519080825280601f01601f191660200182016040528015612b695781602001600182028036833780820191505090505b5090505b60008514612c1c57600182612b82919061466c565b9150600a85612b91919061485f565b6030612b9d9190614554565b60f81b818381518110612bd9577f4e487b7100000000000000000000000000000000000000000000000000000000600052603260045260246000fd5b60200101907effffffffffffffffffffffffffffffffffffffffffffffffffffffffffffff1916908160001a905350600a85612c1591906145e1565b9450612b6d565b8093505050505b919050565b600084848484604051602001612c419493929190614123565b6040516020818303038152906040528051906020012060001c9050949350505050565b60008282604051602001612c79929190613eb6565b60405160208183030381529060405280519060200120905092915050565b60008151905060006a636f6e736f6c652e6c6f679050602083016000808483855afa5050505050565b612cca8383612d2e565b612cd760008484846128e4565b612d16576040517f08c379a0000000000000000000000000000000000000000000000000000000008152600401612d0d906141dd565b60405180910390fd5b505050565b600080823b905060008111915050919050565b600073ffffffffffffffffffffffffffffffffffffffff168273ffffffffffffffffffffffffffffffffffffffff161415612d9e576040517f08c379a0000000000000000000000000000000000000000000000000000000008152600401612d959061433d565b60405180910390fd5b612da781610ee5565b15612de7576040517f08c379a0000000000000000000000000000000000000000000000000000000008152600401612dde906141fd565b60405180910390fd5b612df360008383611a29565b6001600360008473ffffffffffffffffffffffffffffffffffffffff1673ffffffffffffffffffffffffffffffffffffffff1681526020019081526020016000206000828254612e439190614554565b92505081905550816002600083815260200190815260200160002060006101000a81548173ffffffffffffffffffffffffffffffffffffffff021916908373ffffffffffffffffffffffffffffffffffffffff160217905550808273ffffffffffffffffffffffffffffffffffffffff16600073ffffffffffffffffffffffffffffffffffffffff167fddf252ad1be2c89b69c2b068fc378daa952ba7f163c4a11628f55a4df523b3ef60405160405180910390a45050565b6040518060e00160405280600060ff1681526020016060815260200160608152602001600061ffff1681526020016060815260200160608152602001606081525090565b828054612f4c9061477b565b90600052602060002090601f016020900481019282612f6e5760008555612fb5565b82601f10612f8757805160ff1916838001178555612fb5565b82800160010185558215612fb5579182015b82811115612fb4578251825591602001919060010190612f99565b5b509050612fc29190612fc6565b5090565b5b80821115612fdf576000816000905550600101612fc7565b5090565b6000612ff6612ff1846144a9565b614478565b90508281526020810184848401111561300e57600080fd5b613019848285614739565b509392505050565b6000813590506130308161495d565b92915050565b60008135905061304581614974565b92915050565b60008151905061305a81614974565b92915050565b60008135905061306f8161498b565b92915050565b600081359050613084816149a2565b92915050565b600081519050613099816149a2565b92915050565b600082601f8301126130b057600080fd5b81356130c0848260208601612fe3565b91505092915050565b6000813590506130d8816149b9565b92915050565b6000815190506130ed816149b9565b92915050565b60006020828403121561310557600080fd5b600061311384828501613021565b91505092915050565b6000806040838503121561312f57600080fd5b600061313d85828601613021565b925050602061314e85828601613021565b9150509250929050565b60008060006060848603121561316d57600080fd5b600061317b86828701613021565b935050602061318c86828701613021565b925050604061319d868287016130c9565b9150509250925092565b600080600080608085870312156131bd57600080fd5b60006131cb87828801613021565b94505060206131dc87828801613021565b93505060406131ed878288016130c9565b925050606085013567ffffffffffffffff81111561320a57600080fd5b6132168782880161309f565b91505092959194509250565b6000806040838503121561323557600080fd5b600061324385828601613021565b925050602061325485828601613036565b9150509250929050565b6000806040838503121561327157600080fd5b600061327f85828601613021565b9250506020613290858286016130c9565b9150509250929050565b6000602082840312156132ac57600080fd5b60006132ba8482850161304b565b91505092915050565b600080604083850312156132d657600080fd5b60006132e485828601613060565b92505060206132f5858286016130c9565b9150509250929050565b60006020828403121561331157600080fd5b600061331f84828501613075565b91505092915050565b60006020828403121561333a57600080fd5b60006133488482850161308a565b91505092915050565b60006020828403121561336357600080fd5b6000613371848285016130c9565b91505092915050565b60006020828403121561338c57600080fd5b600061339a848285016130de565b91505092915050565b6133ac816146a0565b82525050565b6133bb816146b2565b82525050565b6133ca816146be565b82525050565b6133e16133dc826146be565b61484b565b82525050565b60006133f2826144d9565b6133fc81856144ef565b935061340c818560208601614748565b6134158161494c565b840191505092915050565b600061342b826144e4565b6134358185614500565b9350613445818560208601614748565b61344e8161494c565b840191505092915050565b6000613464826144e4565b61346e8185614511565b935061347e818560208601614748565b80840191505092915050565b6000613497603283614500565b91507f4552433732313a207472616e7366657220746f206e6f6e20455243373231526560008301527f63656976657220696d706c656d656e74657200000000000000000000000000006020830152604082019050919050565b60006134fd600283614511565b91507f222c0000000000000000000000000000000000000000000000000000000000006000830152600282019050919050565b600061353d600b83614511565b91507f2022696d616765223a20220000000000000000000000000000000000000000006000830152600b82019050919050565b600061357d601c83614500565b91507f4552433732313a20746f6b656e20616c7265616479206d696e746564000000006000830152602082019050919050565b60006135bd601183614511565b91507f20226465736372697074696f6e223a20220000000000000000000000000000006000830152601182019050919050565b60006135fd602483614500565b91507f4552433732313a207472616e7366657220746f20746865207a65726f2061646460008301527f72657373000000000000000000000000000000000000000000000000000000006020830152604082019050919050565b6000613663601983614500565b91507f4552433732313a20617070726f766520746f2063616c6c6572000000000000006000830152602082019050919050565b60006136a3602c83614500565b91507f4552433732313a206f70657261746f7220717565727920666f72206e6f6e657860008301527f697374656e7420746f6b656e00000000000000000000000000000000000000006020830152604082019050919050565b6000613709603183614500565b91507f41207265717565737420697320616c726561647920696e2070726f677265737360008301527f20666f72207468697320616464726573730000000000000000000000000000006020830152604082019050919050565b600061376f600783614511565b91507f697066733a2f2f000000000000000000000000000000000000000000000000006000830152600782019050919050565b60006137af600f83614500565b91507f4e6f7420656e6f756768204c494e4b00000000000000000000000000000000006000830152602082019050919050565b60006137ef603883614500565b91507f4552433732313a20617070726f76652063616c6c6572206973206e6f74206f7760008301527f6e6572206e6f7220617070726f76656420666f7220616c6c00000000000000006020830152604082019050919050565b6000613855602a83614500565b91507f4552433732313a2062616c616e636520717565727920666f7220746865207a6560008301527f726f2061646472657373000000000000000000000000000000000000000000006020830152604082019050919050565b60006138bb602983614500565b91507f4552433732313a206f776e657220717565727920666f72206e6f6e657869737460008301527f656e7420746f6b656e00000000000000000000000000000000000000000000006020830152604082019050919050565b6000613921602e83614500565b91507f45524337323155524953746f726167653a2055524920736574206f66206e6f6e60008301527f6578697374656e7420746f6b656e0000000000000000000000000000000000006020830152604082019050919050565b6000613987602083614500565b91507f4552433732313a206d696e7420746f20746865207a65726f20616464726573736000830152602082019050919050565b60006139c7603183614500565b91507f45524337323155524953746f726167653a2055524920717565727920666f722060008301527f6e6f6e6578697374656e7420746f6b656e0000000000000000000000000000006020830152604082019050919050565b6000613a2d602c83614500565b91507f4552433732313a20617070726f76656420717565727920666f72206e6f6e657860008301527f697374656e7420746f6b656e00000000000000000000000000000000000000006020830152604082019050919050565b6000613a93602983614500565b91507f4552433732313a207472616e73666572206f6620746f6b656e2074686174206960008301527f73206e6f74206f776e00000000000000000000000000000000000000000000006020830152604082019050919050565b6000613af9602f83614500565b91507f4552433732314d657461646174613a2055524920717565727920666f72206e6f60008301527f6e6578697374656e7420746f6b656e00000000000000000000000000000000006020830152604082019050919050565b6000613b5f600a83614511565b91507f7b226e616d65223a2022000000000000000000000000000000000000000000006000830152600a82019050919050565b6000613b9f601f83614500565b91507f4f6e6c7920565246436f6f7264696e61746f722063616e2066756c66696c6c006000830152602082019050919050565b6000613bdf602183614500565b91507f4552433732313a20617070726f76616c20746f2063757272656e74206f776e6560008301527f72000000000000000000000000000000000000000000000000000000000000006020830152604082019050919050565b6000613c45604c83614511565b91507f227d2c7b2274726169745f74797065223a20224d696e7465642077697468207360008301527f4b4c494d41222c2022646973706c61795f74797065223a20226e756d6265722260208301527f2c202276616c7565223a202200000000000000000000000000000000000000006040830152604c82019050919050565b6000613cd1601d83614511565b91507f646174613a6170706c69636174696f6e2f6a736f6e3b6261736536342c0000006000830152601d82019050919050565b6000613d11601c83614500565b91507f5468697320636f6c6c656374696f6e2068617320736f6c64206f7574000000006000830152602082019050919050565b6000613d51603183614500565b91507f4552433732313a207472616e736665722063616c6c6572206973206e6f74206f60008301527f776e6572206e6f7220617070726f7665640000000000000000000000000000006020830152604082019050919050565b6000613db7601383614511565b91507f202265787465726e616c5f6c696e6b223a2022000000000000000000000000006000830152601382019050919050565b6000613df7603383614511565b91507f202261747472696275746573223a205b7b2274726169745f74797065223a202260008301527f726172697479222c202276616c7565223a2022000000000000000000000000006020830152603382019050919050565b6000613e5d600483614511565b91507f227d5d7d000000000000000000000000000000000000000000000000000000006000830152600482019050919050565b613e9981614722565b82525050565b613eb0613eab82614722565b614855565b82525050565b6000613ec282856133d0565b602082019150613ed28284613e9f565b6020820191508190509392505050565b6000613eee8285613459565b9150613efa8284613459565b91508190509392505050565b6000613f1182613b52565b9150613f1d828a613459565b9150613f28826134f0565b9150613f33826135b0565b9150613f3f8289613459565b9150613f4a826134f0565b9150613f5582613530565b9150613f6082613762565b9150613f6c8288613459565b9150613f77826134f0565b9150613f8282613daa565b9150613f8e8287613459565b9150613f9a8286613459565b9150613fa5826134f0565b9150613fb082613dea565b9150613fbc8285613459565b9150613fc782613c38565b9150613fd38284613459565b9150613fde82613e50565b915081905098975050505050505050565b6000613ffa82613cc4565b91506140068284613459565b915081905092915050565b600060208201905061402660008301846133a3565b92915050565b600060808201905061404160008301876133a3565b61404e60208301866133a3565b61405b6040830185613e90565b818103606083015261406d81846133e7565b905095945050505050565b600060408201905061408d60008301856133a3565b61409a6020830184613e90565b9392505050565b60006060820190506140b660008301866133a3565b6140c36020830185613e90565b81810360408301526140d581846133e7565b9050949350505050565b60006020820190506140f460008301846133b2565b92915050565b600060408201905061410f60008301856133c1565b61411c6020830184613e90565b9392505050565b600060808201905061413860008301876133c1565b6141456020830186613e90565b61415260408301856133a3565b61415f6060830184613e90565b95945050505050565b600060208201905081810360008301526141828184613420565b905092915050565b600060808201905081810360008301526141a48187613420565b90506141b36020830186613e90565b6141c060408301856133a3565b81810360608301526141d28184613420565b905095945050505050565b600060208201905081810360008301526141f68161348a565b9050919050565b6000602082019050818103600083015261421681613570565b9050919050565b60006020820190508181036000830152614236816135f0565b9050919050565b6000602082019050818103600083015261425681613656565b9050919050565b6000602082019050818103600083015261427681613696565b9050919050565b60006020820190508181036000830152614296816136fc565b9050919050565b600060208201905081810360008301526142b6816137a2565b9050919050565b600060208201905081810360008301526142d6816137e2565b9050919050565b600060208201905081810360008301526142f681613848565b9050919050565b60006020820190508181036000830152614316816138ae565b9050919050565b6000602082019050818103600083015261433681613914565b9050919050565b600060208201905081810360008301526143568161397a565b9050919050565b60006020820190508181036000830152614376816139ba565b9050919050565b6000602082019050818103600083015261439681613a20565b9050919050565b600060208201905081810360008301526143b681613a86565b9050919050565b600060208201905081810360008301526143d681613aec565b9050919050565b600060208201905081810360008301526143f681613b92565b9050919050565b6000602082019050818103600083015261441681613bd2565b9050919050565b6000602082019050818103600083015261443681613d04565b9050919050565b6000602082019050818103600083015261445681613d44565b9050919050565b60006020820190506144726000830184613e90565b92915050565b6000604051905081810181811067ffffffffffffffff8211171561449f5761449e61491d565b5b8060405250919050565b600067ffffffffffffffff8211156144c4576144c361491d565b5b601f19601f8301169050602081019050919050565b600081519050919050565b600081519050919050565b600082825260208201905092915050565b600082825260208201905092915050565b600081905092915050565b6000614527826146f4565b9150614532836146f4565b92508261ffff0382111561454957614548614890565b5b828201905092915050565b600061455f82614722565b915061456a83614722565b9250827fffffffffffffffffffffffffffffffffffffffffffffffffffffffffffffffff0382111561459f5761459e614890565b5b828201905092915050565b60006145b58261472c565b91506145c08361472c565b92508260ff038211156145d6576145d5614890565b5b828201905092915050565b60006145ec82614722565b91506145f783614722565b925082614607576146066148bf565b5b828204905092915050565b600061461d82614722565b915061462883614722565b9250817fffffffffffffffffffffffffffffffffffffffffffffffffffffffffffffffff048311821515161561466157614660614890565b5b828202905092915050565b600061467782614722565b915061468283614722565b92508282101561469557614694614890565b5b828203905092915050565b60006146ab82614702565b9050919050565b60008115159050919050565b6000819050919050565b60007fffffffff0000000000000000000000000000000000000000000000000000000082169050919050565b600061ffff82169050919050565b600073ffffffffffffffffffffffffffffffffffffffff82169050919050565b6000819050919050565b600060ff82169050919050565b82818337600083830152505050565b60005b8381101561476657808201518184015260208101905061474b565b83811115614775576000848401525b50505050565b6000600282049050600182168061479357607f821691505b602082108114156147a7576147a66148ee565b5b50919050565b60006147b8826146f4565b915061ffff8214156147cd576147cc614890565b5b600182019050919050565b60006147e382614722565b91507fffffffffffffffffffffffffffffffffffffffffffffffffffffffffffffffff82141561481657614815614890565b5b600182019050919050565b600061482c8261472c565b915060ff8214156148405761483f614890565b5b600182019050919050565b6000819050919050565b6000819050919050565b600061486a82614722565b915061487583614722565b925082614885576148846148bf565b5b828206905092915050565b7f4e487b7100000000000000000000000000000000000000000000000000000000600052601160045260246000fd5b7f4e487b7100000000000000000000000000000000000000000000000000000000600052601260045260246000fd5b7f4e487b7100000000000000000000000000000000000000000000000000000000600052602260045260246000fd5b7f4e487b7100000000000000000000000000000000000000000000000000000000600052604160045260246000fd5b6000601f19601f8301169050919050565b614966816146a0565b811461497157600080fd5b50565b61497d816146b2565b811461498857600080fd5b50565b614994816146be565b811461499f57600080fd5b50565b6149ab816146c8565b81146149b657600080fd5b50565b6149c281614722565b81146149cd57600080fd5b5056fe416e204e465420772f20494420257320686173206265656e206d696e74656420746f202573516d5645735336715176617462417243534e59694a554a414b556932386f724448316444324c6f47556236765a47516d536d62387276774e7050416271613757697072336f654248596a5473715332333670417957773472687570394142434445464748494a4b4c4d4e4f505152535455565758595a6162636465666768696a6b6c6d6e6f707172737475767778797a303132333435363738392b2f516d55336a58636475386a47626664524c7555326850444c4d4b393368694838615078314d506f6261536f73664641207472696275746520746f207468652065617274682773206e61747572616c20626561757479206d6164652076697369626c652062792068756d616e20696e67656e756974792ea264697066735822122032678e1f709dd305d8e8529446fc4297bff35079e2088fc5adbc21dc01ea524664736f6c63430008000033",
  "linkReferences": {},
  "deployedLinkReferences": {}
}