{
  "_format": "hh-sol-artifact-1",
  "contractName": "KlimaGarden",
  "sourceName": "contracts/KlimaGarden.sol",
  "abi": [
    {
      "inputs": [],
      "stateMutability": "nonpayable",
      "type": "constructor"
    },
    {
      "anonymous": false,
      "inputs": [
        {
          "indexed": true,
          "internalType": "address",
          "name": "owner",
          "type": "address"
        },
        {
          "indexed": true,
          "internalType": "address",
          "name": "approved",
          "type": "address"
        },
        {
          "indexed": true,
          "internalType": "uint256",
          "name": "tokenId",
          "type": "uint256"
        }
      ],
      "name": "Approval",
      "type": "event"
    },
    {
      "anonymous": false,
      "inputs": [
        {
          "indexed": true,
          "internalType": "address",
          "name": "owner",
          "type": "address"
        },
        {
          "indexed": true,
          "internalType": "address",
          "name": "operator",
          "type": "address"
        },
        {
          "indexed": false,
          "internalType": "bool",
          "name": "approved",
          "type": "bool"
        }
      ],
      "name": "ApprovalForAll",
      "type": "event"
    },
    {
      "anonymous": false,
      "inputs": [
        {
          "indexed": false,
          "internalType": "address",
          "name": "sender",
          "type": "address"
        },
        {
          "indexed": false,
          "internalType": "uint256",
          "name": "tokenId",
          "type": "uint256"
        }
      ],
      "name": "NewKlimaGardenMinted",
      "type": "event"
    },
    {
      "anonymous": false,
      "inputs": [
        {
          "indexed": true,
          "internalType": "address",
          "name": "from",
          "type": "address"
        },
        {
          "indexed": true,
          "internalType": "address",
          "name": "to",
          "type": "address"
        },
        {
          "indexed": true,
          "internalType": "uint256",
          "name": "tokenId",
          "type": "uint256"
        }
      ],
      "name": "Transfer",
      "type": "event"
    },
    {
      "inputs": [
        {
          "internalType": "uint256",
          "name": "",
          "type": "uint256"
        }
      ],
      "name": "_sklimaBalances",
      "outputs": [
        {
          "internalType": "uint256",
          "name": "",
          "type": "uint256"
        }
      ],
      "stateMutability": "view",
      "type": "function"
    },
    {
      "inputs": [
        {
          "internalType": "address",
          "name": "to",
          "type": "address"
        },
        {
          "internalType": "uint256",
          "name": "tokenId",
          "type": "uint256"
        }
      ],
      "name": "approve",
      "outputs": [],
      "stateMutability": "nonpayable",
      "type": "function"
    },
    {
      "inputs": [
        {
          "internalType": "address",
          "name": "owner",
          "type": "address"
        }
      ],
      "name": "balanceOf",
      "outputs": [
        {
          "internalType": "uint256",
          "name": "",
          "type": "uint256"
        }
      ],
      "stateMutability": "view",
      "type": "function"
    },
    {
      "inputs": [
        {
          "internalType": "uint256",
          "name": "tokenId",
          "type": "uint256"
        }
      ],
      "name": "getApproved",
      "outputs": [
        {
          "internalType": "address",
          "name": "",
          "type": "address"
        }
      ],
      "stateMutability": "view",
      "type": "function"
    },
    {
      "inputs": [
        {
          "internalType": "address",
          "name": "owner",
          "type": "address"
        },
        {
          "internalType": "address",
          "name": "operator",
          "type": "address"
        }
      ],
      "name": "isApprovedForAll",
      "outputs": [
        {
          "internalType": "bool",
          "name": "",
          "type": "bool"
        }
      ],
      "stateMutability": "view",
      "type": "function"
    },
    {
      "inputs": [
        {
          "internalType": "uint256",
          "name": "sklimaBalance",
          "type": "uint256"
        }
      ],
      "name": "makeNFT",
      "outputs": [],
      "stateMutability": "nonpayable",
      "type": "function"
    },
    {
      "inputs": [],
      "name": "name",
      "outputs": [
        {
          "internalType": "string",
          "name": "",
          "type": "string"
        }
      ],
      "stateMutability": "view",
      "type": "function"
    },
    {
      "inputs": [
        {
          "internalType": "uint256",
          "name": "tokenId",
          "type": "uint256"
        }
      ],
      "name": "ownerOf",
      "outputs": [
        {
          "internalType": "address",
          "name": "",
          "type": "address"
        }
      ],
      "stateMutability": "view",
      "type": "function"
    },
    {
      "inputs": [
        {
          "internalType": "address",
          "name": "from",
          "type": "address"
        },
        {
          "internalType": "address",
          "name": "to",
          "type": "address"
        },
        {
          "internalType": "uint256",
          "name": "tokenId",
          "type": "uint256"
        }
      ],
      "name": "safeTransferFrom",
      "outputs": [],
      "stateMutability": "nonpayable",
      "type": "function"
    },
    {
      "inputs": [
        {
          "internalType": "address",
          "name": "from",
          "type": "address"
        },
        {
          "internalType": "address",
          "name": "to",
          "type": "address"
        },
        {
          "internalType": "uint256",
          "name": "tokenId",
          "type": "uint256"
        },
        {
          "internalType": "bytes",
          "name": "_data",
          "type": "bytes"
        }
      ],
      "name": "safeTransferFrom",
      "outputs": [],
      "stateMutability": "nonpayable",
      "type": "function"
    },
    {
      "inputs": [
        {
          "internalType": "address",
          "name": "operator",
          "type": "address"
        },
        {
          "internalType": "bool",
          "name": "approved",
          "type": "bool"
        }
      ],
      "name": "setApprovalForAll",
      "outputs": [],
      "stateMutability": "nonpayable",
      "type": "function"
    },
    {
      "inputs": [
        {
          "internalType": "bytes4",
          "name": "interfaceId",
          "type": "bytes4"
        }
      ],
      "name": "supportsInterface",
      "outputs": [
        {
          "internalType": "bool",
          "name": "",
          "type": "bool"
        }
      ],
      "stateMutability": "view",
      "type": "function"
    },
    {
      "inputs": [],
      "name": "symbol",
      "outputs": [
        {
          "internalType": "string",
          "name": "",
          "type": "string"
        }
      ],
      "stateMutability": "view",
      "type": "function"
    },
    {
      "inputs": [
        {
          "internalType": "uint256",
          "name": "tokenId",
          "type": "uint256"
        }
      ],
      "name": "tokenURI",
      "outputs": [
        {
          "internalType": "string",
          "name": "",
          "type": "string"
        }
      ],
      "stateMutability": "view",
      "type": "function"
    },
    {
      "inputs": [
        {
          "internalType": "address",
          "name": "from",
          "type": "address"
        },
        {
          "internalType": "address",
          "name": "to",
          "type": "address"
        },
        {
          "internalType": "uint256",
          "name": "tokenId",
          "type": "uint256"
        }
      ],
      "name": "transferFrom",
      "outputs": [],
      "stateMutability": "nonpayable",
      "type": "function"
    }
  ],
  "bytecode": "0x608060405260405180610160016040528061012f8152602001620039cc61012f913960099080519060200190620000389291906200023b565b506040518060400160405280601981526020017f68747470733a2f2f6b6c696d612e67617264656e2f332c332f00000000000000815250600a9080519060200190620000869291906200023b565b5060405180606001604052806035815260200162003afb60359139600b9080519060200190620000b89291906200023b565b506040518060400160405280601081526020017f426c7565205269646765204c6f2d466900000000000000000000000000000000815250600c9080519060200190620001069291906200023b565b506040518060400160405280600681526020017f636f6d6d6f6e0000000000000000000000000000000000000000000000000000815250600d9080519060200190620001549291906200023b565b5060405180608001604052806048815260200162003b3060489139600e9080519060200190620001869291906200023b565b503480156200019457600080fd5b506040518060400160405280600c81526020017f4b6c696d612047617264656e00000000000000000000000000000000000000008152506040518060400160405280600b81526020017f4b4c494d4147415244454e0000000000000000000000000000000000000000008152508160009080519060200190620002199291906200023b565b508060019080519060200190620002329291906200023b565b50505062000350565b8280546200024990620002eb565b90600052602060002090601f0160209004810192826200026d5760008555620002b9565b82601f106200028857805160ff1916838001178555620002b9565b82800160010185558215620002b9579182015b82811115620002b85782518255916020019190600101906200029b565b5b509050620002c89190620002cc565b5090565b5b80821115620002e7576000816000905550600101620002cd565b5090565b600060028204905060018216806200030457607f821691505b602082108114156200031b576200031a62000321565b5b50919050565b7f4e487b7100000000000000000000000000000000000000000000000000000000600052602260045260246000fd5b61366c80620003606000396000f3fe608060405234801561001057600080fd5b50600436106100f55760003560e01c80636352211e11610097578063a22cb46511610066578063a22cb46514610296578063b88d4fde146102b2578063c87b56dd146102ce578063e985e9c5146102fe576100f5565b80636352211e146101e857806370a08231146102185780638d9ee9521461024857806395d89b4114610278576100f5565b8063095ea7b3116100d3578063095ea7b314610178578063226c264d1461019457806323b872dd146101b057806342842e0e146101cc576100f5565b806301ffc9a7146100fa57806306fdde031461012a578063081812fc14610148575b600080fd5b610114600480360381019061010f9190612280565b61032e565b6040516101219190612e9e565b60405180910390f35b610132610410565b60405161013f9190612eb9565b60405180910390f35b610162600480360381019061015d91906122d2565b6104a2565b60405161016f9190612e0e565b60405180910390f35b610192600480360381019061018d9190612244565b610527565b005b6101ae60048036038101906101a991906122d2565b61063f565b005b6101ca60048036038101906101c5919061213e565b6107ee565b005b6101e660048036038101906101e1919061213e565b61084e565b005b61020260048036038101906101fd91906122d2565b61086e565b60405161020f9190612e0e565b60405180910390f35b610232600480360381019061022d91906120d9565b610920565b60405161023f9190613119565b60405180910390f35b610262600480360381019061025d91906122d2565b6109d8565b60405161026f9190613119565b60405180910390f35b6102806109f0565b60405161028d9190612eb9565b60405180910390f35b6102b060048036038101906102ab9190612208565b610a82565b005b6102cc60048036038101906102c7919061218d565b610c03565b005b6102e860048036038101906102e391906122d2565b610c65565b6040516102f59190612eb9565b60405180910390f35b61031860048036038101906103139190612102565b610db7565b6040516103259190612e9e565b60405180910390f35b60007f80ac58cd000000000000000000000000000000000000000000000000000000007bffffffffffffffffffffffffffffffffffffffffffffffffffffffff1916827bffffffffffffffffffffffffffffffffffffffffffffffffffffffff191614806103f957507f5b5e139f000000000000000000000000000000000000000000000000000000007bffffffffffffffffffffffffffffffffffffffffffffffffffffffff1916827bffffffffffffffffffffffffffffffffffffffffffffffffffffffff1916145b80610409575061040882610e4b565b5b9050919050565b60606000805461041f906133fc565b80601f016020809104026020016040519081016040528092919081815260200182805461044b906133fc565b80156104985780601f1061046d57610100808354040283529160200191610498565b820191906000526020600020905b81548152906001019060200180831161047b57829003601f168201915b5050505050905090565b60006104ad82610eb5565b6104ec576040517f08c379a00000000000000000000000000000000000000000000000000000000081526004016104e390613079565b60405180910390fd5b6004600083815260200190815260200160002060009054906101000a900473ffffffffffffffffffffffffffffffffffffffff169050919050565b60006105328261086e565b90508073ffffffffffffffffffffffffffffffffffffffff168373ffffffffffffffffffffffffffffffffffffffff1614156105a3576040517f08c379a000000000000000000000000000000000000000000000000000000000815260040161059a906130d9565b60405180910390fd5b8073ffffffffffffffffffffffffffffffffffffffff166105c2610f21565b73ffffffffffffffffffffffffffffffffffffffff1614806105f157506105f0816105eb610f21565b610db7565b5b610630576040517f08c379a000000000000000000000000000000000000000000000000000000000815260040161062790612fb9565b60405180910390fd5b61063a8383610f29565b505050565b600061064b6007610fe2565b905081600860008381526020019081526020016000208190555060006106c3600c600e600b600a61067b87610ff0565b600d610699600860008b815260200190815260200160002054610ff0565b6040516020016106af9796959493929190612d0e565b6040516020818303038152906040526111c5565b90506000816040516020016106d89190612dec565b60405160208183030381529060405290506107276040518060400160405280601581526020017f0a2d2d2d2d2d2d2d2d2d2d2d2d2d2d2d2d2d2d2d2d0000000000000000000000815250611383565b61073081611383565b61076e6040518060400160405280601581526020017f2d2d2d2d2d2d2d2d2d2d2d2d2d2d2d2d2d2d2d2d0a0000000000000000000000815250611383565b610778338461141c565b610782838261143a565b6107a56040518060600160405280602581526020016135d26025913984336114ae565b6107af600761154d565b7fb0608e84c0ee085336e90edfdd8891576e0761b98002aa076756b6ceb423d14a33846040516107e0929190612e75565b60405180910390a150505050565b6107ff6107f9610f21565b82611563565b61083e576040517f08c379a0000000000000000000000000000000000000000000000000000000008152600401610835906130f9565b60405180910390fd5b610849838383611641565b505050565b61086983838360405180602001604052806000815250610c03565b505050565b6000806002600084815260200190815260200160002060009054906101000a900473ffffffffffffffffffffffffffffffffffffffff169050600073ffffffffffffffffffffffffffffffffffffffff168173ffffffffffffffffffffffffffffffffffffffff161415610917576040517f08c379a000000000000000000000000000000000000000000000000000000000815260040161090e90612ff9565b60405180910390fd5b80915050919050565b60008073ffffffffffffffffffffffffffffffffffffffff168273ffffffffffffffffffffffffffffffffffffffff161415610991576040517f08c379a000000000000000000000000000000000000000000000000000000000815260040161098890612fd9565b60405180910390fd5b600360008373ffffffffffffffffffffffffffffffffffffffff1673ffffffffffffffffffffffffffffffffffffffff168152602001908152602001600020549050919050565b60086020528060005260406000206000915090505481565b6060600180546109ff906133fc565b80601f0160208091040260200160405190810160405280929190818152602001828054610a2b906133fc565b8015610a785780601f10610a4d57610100808354040283529160200191610a78565b820191906000526020600020905b815481529060010190602001808311610a5b57829003601f168201915b5050505050905090565b610a8a610f21565b73ffffffffffffffffffffffffffffffffffffffff168273ffffffffffffffffffffffffffffffffffffffff161415610af8576040517f08c379a0000000000000000000000000000000000000000000000000000000008152600401610aef90612f79565b60405180910390fd5b8060056000610b05610f21565b73ffffffffffffffffffffffffffffffffffffffff1673ffffffffffffffffffffffffffffffffffffffff16815260200190815260200160002060008473ffffffffffffffffffffffffffffffffffffffff1673ffffffffffffffffffffffffffffffffffffffff16815260200190815260200160002060006101000a81548160ff0219169083151502179055508173ffffffffffffffffffffffffffffffffffffffff16610bb2610f21565b73ffffffffffffffffffffffffffffffffffffffff167f17307eab39ab6107e8899845ad3d59bd9653f200f220920489ca2b5937696c3183604051610bf79190612e9e565b60405180910390a35050565b610c14610c0e610f21565b83611563565b610c53576040517f08c379a0000000000000000000000000000000000000000000000000000000008152600401610c4a906130f9565b60405180910390fd5b610c5f8484848461189d565b50505050565b6060610c7082610eb5565b610caf576040517f08c379a0000000000000000000000000000000000000000000000000000000008152600401610ca690613059565b60405180910390fd5b6000600660008481526020019081526020016000208054610ccf906133fc565b80601f0160208091040260200160405190810160405280929190818152602001828054610cfb906133fc565b8015610d485780601f10610d1d57610100808354040283529160200191610d48565b820191906000526020600020905b815481529060010190602001808311610d2b57829003601f168201915b505050505090506000610d596118f9565b9050600081511415610d6f578192505050610db2565b600082511115610da4578082604051602001610d8c929190612cea565b60405160208183030381529060405292505050610db2565b610dad84611910565b925050505b919050565b6000600560008473ffffffffffffffffffffffffffffffffffffffff1673ffffffffffffffffffffffffffffffffffffffff16815260200190815260200160002060008373ffffffffffffffffffffffffffffffffffffffff1673ffffffffffffffffffffffffffffffffffffffff16815260200190815260200160002060009054906101000a900460ff16905092915050565b60007f01ffc9a7000000000000000000000000000000000000000000000000000000007bffffffffffffffffffffffffffffffffffffffffffffffffffffffff1916827bffffffffffffffffffffffffffffffffffffffffffffffffffffffff1916149050919050565b60008073ffffffffffffffffffffffffffffffffffffffff166002600084815260200190815260200160002060009054906101000a900473ffffffffffffffffffffffffffffffffffffffff1673ffffffffffffffffffffffffffffffffffffffff1614159050919050565b600033905090565b816004600083815260200190815260200160002060006101000a81548173ffffffffffffffffffffffffffffffffffffffff021916908373ffffffffffffffffffffffffffffffffffffffff160217905550808273ffffffffffffffffffffffffffffffffffffffff16610f9c8361086e565b73ffffffffffffffffffffffffffffffffffffffff167f8c5be1e5ebec7d5bd14f71427d1e84f3dd0314c0f7b2291e5b200ac8c7c3b92560405160405180910390a45050565b600081600001549050919050565b60606000821415611038576040518060400160405280600181526020017f300000000000000000000000000000000000000000000000000000000000000081525090506111c0565b600082905060005b6000821461106a5780806110539061342e565b915050600a82611063919061327a565b9150611040565b60008167ffffffffffffffff8111156110ac577f4e487b7100000000000000000000000000000000000000000000000000000000600052604160045260246000fd5b6040519080825280601f01601f1916602001820160405280156110de5781602001600182028036833780820191505090505b50905060008290505b600086146111b8576001816110fc9190613305565b90506000600a808861110e919061327a565b61111891906132ab565b876111239190613305565b603061112f9190613243565b905060008160f81b905080848481518110611173577f4e487b7100000000000000000000000000000000000000000000000000000000600052603260045260246000fd5b60200101907effffffffffffffffffffffffffffffffffffffffffffffffffffffffffffff1916908160001a905350600a886111af919061327a565b975050506110e7565b819450505050505b919050565b606060008251905060008114156111ee576040518060200160405280600081525091505061137e565b600060036002836111ff91906131ed565b611209919061327a565b600461121591906132ab565b9050600060208261122691906131ed565b67ffffffffffffffff811115611265577f4e487b7100000000000000000000000000000000000000000000000000000000600052604160045260246000fd5b6040519080825280601f01601f1916602001820160405280156112975781602001600182028036833780820191505090505b50905060006040518060600160405280604081526020016135f7604091399050600181016020830160005b8681101561133b5760038101905062ffffff818a015116603f8160121c168401518060081b905060ff603f83600c1c1686015116810190508060081b905060ff603f8360061c1686015116810190508060081b905060ff603f831686015116810190508060e01b905080845260048401935050506112c2565b506003860660018114611355576002811461136557611370565b613d3d60f01b6002830352611370565b603d60f81b60018303525b508484525050819450505050505b919050565b611419816040516024016113979190612eb9565b6040516020818303038152906040527f41304fac000000000000000000000000000000000000000000000000000000007bffffffffffffffffffffffffffffffffffffffffffffffffffffffff19166020820180517bffffffffffffffffffffffffffffffffffffffffffffffffffffffff83818316178352505050506119b7565b50565b6114368282604051806020016040528060008152506119e0565b5050565b61144382610eb5565b611482576040517f08c379a000000000000000000000000000000000000000000000000000000000815260040161147990613019565b60405180910390fd5b806006600084815260200190815260200160002090805190602001906114a9929190611f65565b505050565b6115488383836040516024016114c693929190612edb565b6040516020818303038152906040527fe3849f79000000000000000000000000000000000000000000000000000000007bffffffffffffffffffffffffffffffffffffffffffffffffffffffff19166020820180517bffffffffffffffffffffffffffffffffffffffffffffffffffffffff83818316178352505050506119b7565b505050565b6001816000016000828254019250508190555050565b600061156e82610eb5565b6115ad576040517f08c379a00000000000000000000000000000000000000000000000000000000081526004016115a490612f99565b60405180910390fd5b60006115b88361086e565b90508073ffffffffffffffffffffffffffffffffffffffff168473ffffffffffffffffffffffffffffffffffffffff16148061162757508373ffffffffffffffffffffffffffffffffffffffff1661160f846104a2565b73ffffffffffffffffffffffffffffffffffffffff16145b8061163857506116378185610db7565b5b91505092915050565b8273ffffffffffffffffffffffffffffffffffffffff166116618261086e565b73ffffffffffffffffffffffffffffffffffffffff16146116b7576040517f08c379a00000000000000000000000000000000000000000000000000000000081526004016116ae90613099565b60405180910390fd5b600073ffffffffffffffffffffffffffffffffffffffff168273ffffffffffffffffffffffffffffffffffffffff161415611727576040517f08c379a000000000000000000000000000000000000000000000000000000000815260040161171e90612f59565b60405180910390fd5b611732838383611a3b565b61173d600082610f29565b6001600360008573ffffffffffffffffffffffffffffffffffffffff1673ffffffffffffffffffffffffffffffffffffffff168152602001908152602001600020600082825461178d9190613305565b925050819055506001600360008473ffffffffffffffffffffffffffffffffffffffff1673ffffffffffffffffffffffffffffffffffffffff16815260200190815260200160002060008282546117e491906131ed565b92505081905550816002600083815260200190815260200160002060006101000a81548173ffffffffffffffffffffffffffffffffffffffff021916908373ffffffffffffffffffffffffffffffffffffffff160217905550808273ffffffffffffffffffffffffffffffffffffffff168473ffffffffffffffffffffffffffffffffffffffff167fddf252ad1be2c89b69c2b068fc378daa952ba7f163c4a11628f55a4df523b3ef60405160405180910390a4505050565b6118a8848484611641565b6118b484848484611a40565b6118f3576040517f08c379a00000000000000000000000000000000000000000000000000000000081526004016118ea90612f19565b60405180910390fd5b50505050565b606060405180602001604052806000815250905090565b606061191b82610eb5565b61195a576040517f08c379a0000000000000000000000000000000000000000000000000000000008152600401611951906130b9565b60405180910390fd5b60006119646118f9565b9050600081511161198457604051806020016040528060008152506119af565b8061198e84611bd7565b60405160200161199f929190612cea565b6040516020818303038152906040525b915050919050565b60008151905060006a636f6e736f6c652e6c6f679050602083016000808483855afa5050505050565b6119ea8383611d84565b6119f76000848484611a40565b611a36576040517f08c379a0000000000000000000000000000000000000000000000000000000008152600401611a2d90612f19565b60405180910390fd5b505050565b505050565b6000611a618473ffffffffffffffffffffffffffffffffffffffff16611f52565b15611bca578373ffffffffffffffffffffffffffffffffffffffff1663150b7a02611a8a610f21565b8786866040518563ffffffff1660e01b8152600401611aac9493929190612e29565b602060405180830381600087803b158015611ac657600080fd5b505af1925050508015611af757506040513d601f19601f82011682018060405250810190611af491906122a9565b60015b611b7a573d8060008114611b27576040519150601f19603f3d011682016040523d82523d6000602084013e611b2c565b606091505b50600081511415611b72576040517f08c379a0000000000000000000000000000000000000000000000000000000008152600401611b6990612f19565b60405180910390fd5b805181602001fd5b63150b7a0260e01b7bffffffffffffffffffffffffffffffffffffffffffffffffffffffff1916817bffffffffffffffffffffffffffffffffffffffffffffffffffffffff191614915050611bcf565b600190505b949350505050565b60606000821415611c1f576040518060400160405280600181526020017f30000000000000000000000000000000000000000000000000000000000000008152509050611d7f565b600082905060005b60008214611c51578080611c3a9061342e565b915050600a82611c4a919061327a565b9150611c27565b60008167ffffffffffffffff811115611c93577f4e487b7100000000000000000000000000000000000000000000000000000000600052604160045260246000fd5b6040519080825280601f01601f191660200182016040528015611cc55781602001600182028036833780820191505090505b5090505b60008514611d7857600182611cde9190613305565b9150600a85611ced9190613477565b6030611cf991906131ed565b60f81b818381518110611d35577f4e487b7100000000000000000000000000000000000000000000000000000000600052603260045260246000fd5b60200101907effffffffffffffffffffffffffffffffffffffffffffffffffffffffffffff1916908160001a905350600a85611d71919061327a565b9450611cc9565b8093505050505b919050565b600073ffffffffffffffffffffffffffffffffffffffff168273ffffffffffffffffffffffffffffffffffffffff161415611df4576040517f08c379a0000000000000000000000000000000000000000000000000000000008152600401611deb90613039565b60405180910390fd5b611dfd81610eb5565b15611e3d576040517f08c379a0000000000000000000000000000000000000000000000000000000008152600401611e3490612f39565b60405180910390fd5b611e4960008383611a3b565b6001600360008473ffffffffffffffffffffffffffffffffffffffff1673ffffffffffffffffffffffffffffffffffffffff1681526020019081526020016000206000828254611e9991906131ed565b92505081905550816002600083815260200190815260200160002060006101000a81548173ffffffffffffffffffffffffffffffffffffffff021916908373ffffffffffffffffffffffffffffffffffffffff160217905550808273ffffffffffffffffffffffffffffffffffffffff16600073ffffffffffffffffffffffffffffffffffffffff167fddf252ad1be2c89b69c2b068fc378daa952ba7f163c4a11628f55a4df523b3ef60405160405180910390a45050565b600080823b905060008111915050919050565b828054611f71906133fc565b90600052602060002090601f016020900481019282611f935760008555611fda565b82601f10611fac57805160ff1916838001178555611fda565b82800160010185558215611fda579182015b82811115611fd9578251825591602001919060010190611fbe565b5b509050611fe79190611feb565b5090565b5b80821115612004576000816000905550600101611fec565b5090565b600061201b61201684613165565b613134565b90508281526020810184848401111561203357600080fd5b61203e8482856133ba565b509392505050565b60008135905061205581613575565b92915050565b60008135905061206a8161358c565b92915050565b60008135905061207f816135a3565b92915050565b600081519050612094816135a3565b92915050565b600082601f8301126120ab57600080fd5b81356120bb848260208601612008565b91505092915050565b6000813590506120d3816135ba565b92915050565b6000602082840312156120eb57600080fd5b60006120f984828501612046565b91505092915050565b6000806040838503121561211557600080fd5b600061212385828601612046565b925050602061213485828601612046565b9150509250929050565b60008060006060848603121561215357600080fd5b600061216186828701612046565b935050602061217286828701612046565b9250506040612183868287016120c4565b9150509250925092565b600080600080608085870312156121a357600080fd5b60006121b187828801612046565b94505060206121c287828801612046565b93505060406121d3878288016120c4565b925050606085013567ffffffffffffffff8111156121f057600080fd5b6121fc8782880161209a565b91505092959194509250565b6000806040838503121561221b57600080fd5b600061222985828601612046565b925050602061223a8582860161205b565b9150509250929050565b6000806040838503121561225757600080fd5b600061226585828601612046565b9250506020612276858286016120c4565b9150509250929050565b60006020828403121561229257600080fd5b60006122a084828501612070565b91505092915050565b6000602082840312156122bb57600080fd5b60006122c984828501612085565b91505092915050565b6000602082840312156122e457600080fd5b60006122f2848285016120c4565b91505092915050565b61230481613339565b82525050565b6123138161334b565b82525050565b6000612324826131aa565b61232e81856131c0565b935061233e8185602086016133c9565b61234781613564565b840191505092915050565b600061235d826131b5565b61236781856131d1565b93506123778185602086016133c9565b61238081613564565b840191505092915050565b6000612396826131b5565b6123a081856131e2565b93506123b08185602086016133c9565b80840191505092915050565b600081546123c9816133fc565b6123d381866131e2565b945060018216600081146123ee57600181146123ff57612432565b60ff19831686528186019350612432565b61240885613195565b60005b8381101561242a5781548189015260018201915060208101905061240b565b838801955050505b50505092915050565b60006124486032836131d1565b91507f4552433732313a207472616e7366657220746f206e6f6e20455243373231526560008301527f63656976657220696d706c656d656e74657200000000000000000000000000006020830152604082019050919050565b60006124ae6002836131e2565b91507f222c0000000000000000000000000000000000000000000000000000000000006000830152600282019050919050565b60006124ee600b836131e2565b91507f2022696d616765223a20220000000000000000000000000000000000000000006000830152600b82019050919050565b600061252e601c836131d1565b91507f4552433732313a20746f6b656e20616c7265616479206d696e746564000000006000830152602082019050919050565b600061256e6011836131e2565b91507f20226465736372697074696f6e223a20220000000000000000000000000000006000830152601182019050919050565b60006125ae6024836131d1565b91507f4552433732313a207472616e7366657220746f20746865207a65726f2061646460008301527f72657373000000000000000000000000000000000000000000000000000000006020830152604082019050919050565b60006126146019836131d1565b91507f4552433732313a20617070726f766520746f2063616c6c6572000000000000006000830152602082019050919050565b6000612654602c836131d1565b91507f4552433732313a206f70657261746f7220717565727920666f72206e6f6e657860008301527f697374656e7420746f6b656e00000000000000000000000000000000000000006020830152604082019050919050565b60006126ba6038836131d1565b91507f4552433732313a20617070726f76652063616c6c6572206973206e6f74206f7760008301527f6e6572206e6f7220617070726f76656420666f7220616c6c00000000000000006020830152604082019050919050565b6000612720602a836131d1565b91507f4552433732313a2062616c616e636520717565727920666f7220746865207a6560008301527f726f2061646472657373000000000000000000000000000000000000000000006020830152604082019050919050565b60006127866029836131d1565b91507f4552433732313a206f776e657220717565727920666f72206e6f6e657869737460008301527f656e7420746f6b656e00000000000000000000000000000000000000000000006020830152604082019050919050565b60006127ec602e836131d1565b91507f45524337323155524953746f726167653a2055524920736574206f66206e6f6e60008301527f6578697374656e7420746f6b656e0000000000000000000000000000000000006020830152604082019050919050565b60006128526020836131d1565b91507f4552433732313a206d696e7420746f20746865207a65726f20616464726573736000830152602082019050919050565b60006128926031836131d1565b91507f45524337323155524953746f726167653a2055524920717565727920666f722060008301527f6e6f6e6578697374656e7420746f6b656e0000000000000000000000000000006020830152604082019050919050565b60006128f8602c836131d1565b91507f4552433732313a20617070726f76656420717565727920666f72206e6f6e657860008301527f697374656e7420746f6b656e00000000000000000000000000000000000000006020830152604082019050919050565b600061295e6029836131d1565b91507f4552433732313a207472616e73666572206f6620746f6b656e2074686174206960008301527f73206e6f74206f776e00000000000000000000000000000000000000000000006020830152604082019050919050565b60006129c4602f836131d1565b91507f4552433732314d657461646174613a2055524920717565727920666f72206e6f60008301527f6e6578697374656e7420746f6b656e00000000000000000000000000000000006020830152604082019050919050565b6000612a2a600a836131e2565b91507f7b226e616d65223a2022000000000000000000000000000000000000000000006000830152600a82019050919050565b6000612a6a6021836131d1565b91507f4552433732313a20617070726f76616c20746f2063757272656e74206f776e6560008301527f72000000000000000000000000000000000000000000000000000000000000006020830152604082019050919050565b6000612ad0604c836131e2565b91507f227d2c7b2274726169745f74797065223a20224d696e7465642077697468207360008301527f4b4c494d41222c2022646973706c61795f74797065223a20226e756d6265722260208301527f2c202276616c7565223a202200000000000000000000000000000000000000006040830152604c82019050919050565b6000612b5c601d836131e2565b91507f646174613a6170706c69636174696f6e2f6a736f6e3b6261736536342c0000006000830152601d82019050919050565b6000612b9c6031836131d1565b91507f4552433732313a207472616e736665722063616c6c6572206973206e6f74206f60008301527f776e6572206e6f7220617070726f7665640000000000000000000000000000006020830152604082019050919050565b6000612c026013836131e2565b91507f202265787465726e616c5f6c696e6b223a2022000000000000000000000000006000830152601382019050919050565b6000612c426033836131e2565b91507f202261747472696275746573223a205b7b2274726169745f74797065223a202260008301527f726172697479222c202276616c7565223a2022000000000000000000000000006020830152603382019050919050565b6000612ca86004836131e2565b91507f227d5d7d000000000000000000000000000000000000000000000000000000006000830152600482019050919050565b612ce4816133a3565b82525050565b6000612cf6828561238b565b9150612d02828461238b565b91508190509392505050565b6000612d1982612a1d565b9150612d25828a6123bc565b9150612d30826124a1565b9150612d3b82612561565b9150612d4782896123bc565b9150612d52826124a1565b9150612d5d826124e1565b9150612d6982886123bc565b9150612d74826124a1565b9150612d7f82612bf5565b9150612d8b82876123bc565b9150612d97828661238b565b9150612da2826124a1565b9150612dad82612c35565b9150612db982856123bc565b9150612dc482612ac3565b9150612dd0828461238b565b9150612ddb82612c9b565b915081905098975050505050505050565b6000612df782612b4f565b9150612e03828461238b565b915081905092915050565b6000602082019050612e2360008301846122fb565b92915050565b6000608082019050612e3e60008301876122fb565b612e4b60208301866122fb565b612e586040830185612cdb565b8181036060830152612e6a8184612319565b905095945050505050565b6000604082019050612e8a60008301856122fb565b612e976020830184612cdb565b9392505050565b6000602082019050612eb3600083018461230a565b92915050565b60006020820190508181036000830152612ed38184612352565b905092915050565b60006060820190508181036000830152612ef58186612352565b9050612f046020830185612cdb565b612f1160408301846122fb565b949350505050565b60006020820190508181036000830152612f328161243b565b9050919050565b60006020820190508181036000830152612f5281612521565b9050919050565b60006020820190508181036000830152612f72816125a1565b9050919050565b60006020820190508181036000830152612f9281612607565b9050919050565b60006020820190508181036000830152612fb281612647565b9050919050565b60006020820190508181036000830152612fd2816126ad565b9050919050565b60006020820190508181036000830152612ff281612713565b9050919050565b6000602082019050818103600083015261301281612779565b9050919050565b60006020820190508181036000830152613032816127df565b9050919050565b6000602082019050818103600083015261305281612845565b9050919050565b6000602082019050818103600083015261307281612885565b9050919050565b60006020820190508181036000830152613092816128eb565b9050919050565b600060208201905081810360008301526130b281612951565b9050919050565b600060208201905081810360008301526130d2816129b7565b9050919050565b600060208201905081810360008301526130f281612a5d565b9050919050565b6000602082019050818103600083015261311281612b8f565b9050919050565b600060208201905061312e6000830184612cdb565b92915050565b6000604051905081810181811067ffffffffffffffff8211171561315b5761315a613535565b5b8060405250919050565b600067ffffffffffffffff8211156131805761317f613535565b5b601f19601f8301169050602081019050919050565b60008190508160005260206000209050919050565b600081519050919050565b600081519050919050565b600082825260208201905092915050565b600082825260208201905092915050565b600081905092915050565b60006131f8826133a3565b9150613203836133a3565b9250827fffffffffffffffffffffffffffffffffffffffffffffffffffffffffffffffff03821115613238576132376134a8565b5b828201905092915050565b600061324e826133ad565b9150613259836133ad565b92508260ff0382111561326f5761326e6134a8565b5b828201905092915050565b6000613285826133a3565b9150613290836133a3565b9250826132a05761329f6134d7565b5b828204905092915050565b60006132b6826133a3565b91506132c1836133a3565b9250817fffffffffffffffffffffffffffffffffffffffffffffffffffffffffffffffff04831182151516156132fa576132f96134a8565b5b828202905092915050565b6000613310826133a3565b915061331b836133a3565b92508282101561332e5761332d6134a8565b5b828203905092915050565b600061334482613383565b9050919050565b60008115159050919050565b60007fffffffff0000000000000000000000000000000000000000000000000000000082169050919050565b600073ffffffffffffffffffffffffffffffffffffffff82169050919050565b6000819050919050565b600060ff82169050919050565b82818337600083830152505050565b60005b838110156133e75780820151818401526020810190506133cc565b838111156133f6576000848401525b50505050565b6000600282049050600182168061341457607f821691505b6020821081141561342857613427613506565b5b50919050565b6000613439826133a3565b91507fffffffffffffffffffffffffffffffffffffffffffffffffffffffffffffffff82141561346c5761346b6134a8565b5b600182019050919050565b6000613482826133a3565b915061348d836133a3565b92508261349d5761349c6134d7565b5b828206905092915050565b7f4e487b7100000000000000000000000000000000000000000000000000000000600052601160045260246000fd5b7f4e487b7100000000000000000000000000000000000000000000000000000000600052601260045260246000fd5b7f4e487b7100000000000000000000000000000000000000000000000000000000600052602260045260246000fd5b7f4e487b7100000000000000000000000000000000000000000000000000000000600052604160045260246000fd5b6000601f19601f8301169050919050565b61357e81613339565b811461358957600080fd5b50565b6135958161334b565b81146135a057600080fd5b50565b6135ac81613357565b81146135b757600080fd5b50565b6135c3816133a3565b81146135ce57600080fd5b5056fe416e204e465420772f20494420257320686173206265656e206d696e74656420746f2025734142434445464748494a4b4c4d4e4f505152535455565758595a6162636465666768696a6b6c6d6e6f707172737475767778797a303132333435363738392b2fa2646970667358221220782329b992c806e68434b713f12f0e21637a714401f374fcfb6c7a9e464e21a464736f6c634300080000333c73766720786d6c6e733d27687474703a2f2f7777772e77332e6f72672f323030302f73766727207072657365727665417370656374526174696f3d27784d696e594d696e206d656574272076696577426f783d273020302033353020333530273e3c7374796c653e2e62617365207b2066696c6c3a2077686974653b20666f6e742d66616d696c793a2073657269663b20666f6e742d73697a653a20323470783b207d3c2f7374796c653e3c726563742077696474683d273130302527206865696768743d2731303025272066696c6c3d27626c61636b27202f3e3c7465787420783d273530252720793d273530252720636c6173733d27626173652720646f6d696e616e742d626173656c696e653d276d6964646c652720746578742d616e63686f723d276d6964646c65273e697066733a2f2f516d5645735336715176617462417243534e59694a554a414b556932386f724448316444324c6f47556236765a4741207472696275746520746f207468652065617274682773206e61747572616c20626561757479206d6164652076697369626c652062792068756d616e20696e67656e756974792e",
  "linkReferences": {},
  "deployedLinkReferences": {}
}